:020000040800F2
:10000000684B0020C1010008130300080F0300081B
:10001000110300080B030008AD03000800000000F6
:10002000000000000000000000000000370300088E
:100030000D03000800000000350300083903000824
:10004000DB010008DB010008DB010008DB01000820
:10005000DB010008DB010008DB010008DB01000810
:10006000DB010008DB010008DB010008DB01000800
:10007000DB010008DB010008DB010008DB010008F0
:10008000DB010008DB010008DB010008DB010008E0
:10009000DB010008DB010008DB010008DB010008D0
:1000A000DB010008DB010008DB010008DB010008C0
:1000B000DB010008DB010008DB010008DB010008B0
:1000C000DB010008DB010008DB010008DB010008A0
:1000D000DB010008DB010008DB010008DB01000890
:1000E000DB010008DB010008DB010008DB01000880
:1000F000DB010008DB010008DB010008DB01000870
:10010000DB010008DB010008DB010008DB0100085F
:10011000DB010008DB010008DB010008DB0100084F
:10012000DB010008DB010008DB010008DB0100083F
:10013000DB010008DB010008DB010008DB0100082F
:10014000DB010008DB010008DB010008DB0100081F
:10015000DB010008DB010008DB010008DB0100080F
:10016000DB010008DB010008DB010008DB010008FF
:10017000DB010008DB010008DB01000800000000D3
:10018000DB010008DB010008DB010008DB010008DF
:10019000DB010008DB010008DB01000800000000B3
:1001A000DB010008DB010008DB010008DFF80CD0F0
:1001B00000F07AF800480047350F0008684B00202F
:1001C0000648804706480047FEE7FEE7FEE7FEE7F1
:1001D000FEE7FEE7FEE7FEE7FEE7FEE73D03000879
:1001E000AD01000840EA01039B0703D009E008C9FC
:1001F000121F08C0042AFAD203E011F8013B00F8EC
:10020000013B521EF9D27047D2B201E000F8012B37
:10021000491EFBD270470022F6E710B513460A4686
:1002200004461946FFF7F0FF204610BD30B50446DE
:100230000020034600E05B1C934203D2E05CCD5CEF
:10024000401BF8D030BD2DE9F05F054600209246F6
:100250009B4688460646814640241BE02846414688
:100260004746224600F041F853465A46C01A91418B
:1002700010D311461846224600F028F82D1A67EBD5
:1002800001084F4622460120002100F01FF817EB1D
:1002900000094E41201EA4F10104DFDC484631462E
:1002A0002A464346BDE8F09F064C074D06E0E0684D
:1002B00040F0010394E8070098471034AC42F6D3AD
:1002C000FFF778FF182A0008382A0008202A04DBE4
:1002D000203A00FA02F1002070479140C2F1200359
:1002E00020FA03F3194390407047202A04DB203A98
:1002F00021FA02F00021704721FA02F3D040C2F146
:1003000020029140084319467047FEE77047FEE718
:10031000FEE770470907090E002806DA00F00F0013
:1003200000F1E02080F8141D704700F1E02080F813
:10033000001470477047704700F052BB18B417485C
:10034000016841F470010160154A106840F0010035
:100350001060134B0833186840F0800018600024C8
:1003600000944CF2503002E00099491C0091009931
:100370008142F9D31C6010680A490840106008499E
:100380000948091D0860106820F4802010600448A6
:100390000C30046018BC01F047BE000088ED00E09E
:1003A00000380240FFFFF6FE10300024FEE7000098
:1003B0000FB4054B10B503A9044A029800F018F8D1
:1003C00010BC5DF814FB0000A90A0008940000208E
:1003D00002E008C8121F08C1002AFAD1704770470E
:1003E000002001E001C1121F002AFBD1704700006C
:1003F0002DE9FF4F8DB09B460F460446002606E0D0
:1004000025280BD05A460F999047641C761C2078FB
:100410000028F5D111B03046BDE8F08F0025A84680
:100420000122984900E0054314F8013F203B02FAFD
:1004300003F00842F7D120782E2817D114F8010FC5
:1004400045F004052A280ED06FF02F022078A0F185
:10045000300109290AD808EB880102EB410100EBC1
:100460000108641CF2E757F8048B641C20786C28A0
:100470000DD004DC4C2812D06A2811D104E0742875
:100480000DD07A280CD10AE045F4001507E0617818
:1004900045F48015814202D1641C05F58015641C69
:1004A0002278692A45D008DC002AB3D0582A69D0BE
:1004B000632A10D0642A08D13BE0702A67D0732ADF
:1004C00013D0752A5CD0782A5CD010465A460F9912
:1004D0009047761CD3E017F8040B8DF8000000203D
:1004E0008DF80100E946012003E057F8049B4FF026
:1004F000FF3069074FF0000501D40AE06D1C454547
:100500000DDA8542FADB19F805100029F6D106E06C
:100510006D1C8542FCDB19F805100029F8D12E442A
:1005200004E019F8010B5A460F9990476D1EF8D256
:10053000A5E00A200021CDE90801C5F302500228F8
:100540000DD001CFC117031E71F100030DDA4FF07A
:10055000000CD0EB0C006CEB01012D2308E0FF1D1B
:1005600027F00707F7E80201EDE72B0504D52B2359
:100570008DF8283001233BE0EB0739D02023F7E743
:100580000A2000E010200021CDE9080107E010203A
:10059000002145F00405CDE908014FF00808C5F336
:1005A000025002280FD001CF00214FF0000A2B0784
:1005B0001FD5702A0DD0DDE908C38CF0100C5CEA61
:1005C000030C0CD015E0FF1D27F00707F7E8020128
:1005D000EBE740228DF828204FF0010A0BE050EAAB
:1005E000010306D030238DF828308DF8292002230E
:1005F0009A46582A04D024A20DF120090B9209E052
:1006000026A2F9E7DDE90823FFF71DFE0B9B9B5CA3
:1006100009F8013D50EA0102F4D1ADEB09002030A8
:100620000890680701D44FF001080899884502DD59
:10063000A8EB010000E000208046002506E00AA8A3
:100640005A46405D0F9990476D1C761C5545F6DB68
:1006500004E030205A460F999047761CB8F100010B
:10066000A8F10108F5DC05E019F8010B5A460F99CD
:100670009047761C0899481E08900029F4DC641CF9
:10068000C5E60000092801003031323334353637F1
:1006900038396162636465660000000030313233CE
:1006A000343536373839414243444546000000006E
:1006B00010B54FF448740C4BA04205D20B4AD989AF
:1006C00022F81010491ED981DA89A24200D8FEE72B
:1006D000198A491C89B21982054B19805A80491C14
:1006E00023F8110010BD000008000020681200204F
:1006F000D81000202DE9F05F40F2FF34DFF8D481FC
:100700004FF0000AA8F810A0C8217348FFF783FD36
:100710004FF4487529467148FFF77DFD4FF400619D
:100720006F48FFF778FD611C6E48FFF774FD0020ED
:100730006D4921F81000401C80B2A842F9D3002571
:10074000DFF890B1644F0BF1120B40F2B6360EE0B9
:10075000204601F0CFF9C0B1B8F81000401C80B2BB
:10076000A8F81000401C27F81040641EA4B2B44240
:10077000EED86D1CEDB2022DF9D388F803A04FF02E
:10078000FF0988F8049000251AE02BF8154088F836
:100790000D402246294655A0FFF70AFE641EA4B26A
:1007A000E7E7204601F0A6F9B0B1B8F81000401C08
:1007B00080B2A8F81000401C27F81040641EA4B2B4
:1007C000B442EED86D1CEDB2022DF9D388F807A023
:1007D00088F8089000251BE03E481A3020F81540A4
:1007E0003BF81520294641A0FFF7E2FD641EA4B2A4
:1007F000E8E7204601F07EF9B0B1B8F81000401CDF
:1008000080B2A8F81000401C27F81040641EA4B263
:10081000B442EED86D1CEDB2022DF9D388F809A0D0
:1008200088F80A90002515E02A481E3020F8154067
:10083000641EA4B2EEE7204601F05CF9B0B1B8F84E
:100840001000401C80B2A8F81000401C27F810408F
:10085000641EA4B2B442EED86D1CEDB2022DF9D3E1
:1008600088F805A088F8069000251AE01948163087
:1008700020F815402246294621A0FFF799FD641E65
:10088000A4B2E9E7204601F035F9B0B1B8F810009C
:10089000401C80B2A8F81000401C27F81040641ECD
:1008A000A4B2B442EED86D1CEDB2022DF9D388F893
:1008B0000BA088F80C90BDE8F09F0648223020F885
:1008C00015402246294613A0FFF772FD641EA4B20C
:1008D000E9E7000008000020D8100020681200207E
:1008E0002819002068270020282100200D444254A8
:1008F0005F426C6F636B5B25785D3D25780A000075
:100900000D5242545F426C6F636B5B25785D3D25F1
:10091000780A00000D454E565F426C6F636B5B2595
:10092000785D3D25780A000010B50023002204E020
:1009300030F812402344521C92B28A42F8D3B3FBDF
:10094000F1F080B210BD000030B50025084B1C88C6
:10095000002108E08A1C33F81220824201D10125CF
:1009600003E0491C89B2A142F4D3284630BD0000FF
:10097000D8100020F0B50023012611E0DC0803F0B8
:100980000705C75C2FB10F5D06FA05F52F430F551C
:1009900004E00F5D06FA05F5AF430F555B1C9BB2F3
:1009A0009342EBD3F0BD70B5002301260DE0DD08C6
:1009B00003F00704455D06FA04F4254201D0012442
:1009C00000E00024CC545B1C9BB29342EFD370BD7B
:1009D0000249086008680028FCD170470400002024
:1009E00003480168002902D00168491E0160704770
:1009F0000400002070B5022000F020FA10A0FFF7DC
:100A0000D7FC1D4D2888002819D1688800F00EFBFE
:100A10000024A9886888224600F0EEFA641CE4B23B
:100A2000402CF6D315A0FFF7C3FCFF20288002203E
:100A300001F046FCA888BDE8704000F0F7BA70BD30
:100A40002A2A2A2A2A2A2A2A2A2A2A556E657870C8
:100A5000656374656420506F776572204C6F7373A3
:100A600020436865636B696E672A2A2A2A2A2A2A24
:100A70002A2A2A2A2A0A00002E000020556E6578AC
:100A800070656374656420506F776572204C6F7376
:100A9000732C2044617461205265636F76657269BE
:100AA0006E672E2E2E0A000070B50446064DE1B288
:100AB000284601F03FFE0721284601F0B4FE002839
:100AC000F9D0204670BD0000001001402DE9F04132
:100AD00006464FF4406000F05FFC1F48008800F0BD
:100AE0005BFC1D4C1D4F0C3407213846226800F07A
:100AF000C9F8251D072138462A6800F0C3F80122ED
:100B000002213846236800F0F3F80222002138461B
:100B1000236800F011F90122022138462B6800F009
:100B2000E7F80222002138462B6800F005F930462C
:100B300001F004FE4FF4E131304601F09FFD042145
:100B4000304601F07DFE0821304601F07FFE304640
:100B5000BDE8F04101F062BE380000200000024014
:100B600070B504460F4830F8140000F015FC0D4D28
:100B700000221835A5F10C0655F8243056F824004B
:100B8000012100F0B5F855F8243056F8240002226F
:100B9000002100F0D1F856F8241055F8240088629E
:100BA00070BD00004C0000200449044A0C3A51F882
:100BB000201052F82000816270470000640000207D
:100BC000014931F810007047282100202DE9F04339
:100BD0008BB04FF6FF7600200790089009900A909E
:100BE0001822214901A8FFF7FDFA00241F4FDFF862
:100BF00080802FE02046FFF7A7FE012828D00022A2
:100C000000210DF1040C00200CEBC10353F82090DF
:100C1000B9F80090A14501D1012203E0401C80B247
:100C20000428F3D31AB9491C89B20529EBD37AB940
:100C30001CB137F8140020B106E03D8826466DB19E
:100C400006E00C49095D69B1A84201D22646054675
:100C5000641CA4B2B8F80E008442CBD30BB030466B
:100C6000BDE8F0832646F9E76C2800082819002023
:100C70000800002068270020014931F81000704763
:100C8000681200202DE9F043046A456A0023012719
:100C90004FF00F0C07FA03F6164208D09E000CFA2C
:100CA00006F824EA080401FA06F848EA04045B1C82
:100CB0009BB2082BEED3082307FA03F818EA020FB9
:100CC0000AD0A3F10806B6000CFA06F825EA0805D2
:100CD00001FA06F949EA05055B1C9BB2102BEBD320
:100CE00004624562BDE8F0838162704781617047AC
:100CF0002DE9F0470568C66800244FF001084FF061
:100D0000030908FA04F71F420ED0670009FA07FC2E
:100D100025EA0C0501FA07FA4AEA050526EA0C0657
:100D200002FA07FC4CEA0606641CA4B2102CE8D3B5
:100D30000560C660BDE8F0872DE9F04101291AD0B1
:100D4000416899434160846800214FF001084FF0E9
:100D5000030C08FA01F71F4206D04D000CFA05F605
:100D6000B44302FA05F63443491C89B21029F0D382
:100D70008460BDE8F081416819434160E3E7000009
:100D80002DE9F04100241B4D40F2B530E8811A4FA7
:100D90004FF44876E889B0420BD3204600F0AAFE13
:100DA00001281DD0154820F81440641CA4B2B44298
:100DB000F0D3288A3880E88978800E48FF212630D1
:100DC0000180002141808180BDE8F081288A401C9B
:100DD00081B22982491CE88927F81100401EE88168
:100DE000E88900F087FE0128F0D02046FFF760FC7C
:100DF000DBE7000008000020D81000206812002067
:100E000010B50B494FF40064A1F11A002346C279D2
:100E1000007A31F81210002200EB8111054800F031
:100E2000B7FF2246BDE8104002490348FFF7DAB990
:100E300022000020980800202819002070B50446E0
:100E4000224D4FF40066002C13D1E97805F1120011
:100E5000334630F811002979002201EB80111C483B
:100E600000F096FF1A494FF4C87201F50460FFF7CD
:100E7000B9F9012C13D1154869791630334630F889
:100E80001100A979002201EB8011114800F080FFC8
:100E90000F494FF4C86201F51D60FFF7A3F9022C5A
:100EA00012D10A48E97A2230334630F81100297B02
:100EB000002201EB8011064800F06AFF0448016837
:100EC000C5F826108088688570BD000008000020E5
:100ED0009808002010B512494FF40063A1F11E00DC
:100EE000427A807A31F81210002200EB81110D480D
:100EF00000F04EFF4FF4C8620A490B48FFF772F941
:100F00000A49802201F51D60FFF76CF90849BDE828
:100F100010404FF48062A1F56C60FFF744BD000003
:100F2000260000209808002028210020D80E00204C
:100F30006827002070B501F079F80A20FFF748FD16
:100F400001F026F91B4C2046FFF7C0FD01F06EF8BA
:100F50000A20FFF73DFD01F01BF92046FFF7B6FD23
:100F600015A0FFF725FA00F04FFE194D19486A88C1
:100F70002988FFF71DFA002406E0A01C35F81010A0
:100F800015A0FFF715FA641C2888A042F5DC00F0D4
:100F90002FFF124C2060014611A0FFF709FA2088AC
:100FA00080B2A0F54841913901D101F065F80020E7
:100FB00070BD000000100140496E697469616C6980
:100FC0007A696E672E2E2E2E2E2E2E2E2E2E0A0093
:100FD000D8100020182900082564200000000020F7
:100FE0000A0D54686520466C6173685F49443A3065
:100FF0007825580A0D0A0D0070B5054614464FF4C1
:10100000046604EB811133460022074800F0C0FE5D
:10101000002808D004EB85113346BDE8704000225B
:10102000014800F067BF70BD980800202DE9F04727
:101030000746DFF8A48038F817504FF448794F4539
:1010400002D30020BDE8F0872846FFF77DFC012889
:101050000AD02C46204600F07BFD06468EB10027C4
:101060001E4D012E1BD029E02846FFF705FE044641
:1010700023462A4639461A48FFF79AF928F81540B8
:10108000E8E7204601F010F92146384600F0B4F9AF
:10109000002001F015F9012001F012F9CFE7114904
:1010A00031F81400401C21F814002878401C2870E6
:1010B00001F564600755A878401CA87028780A28B4
:1010C00002D901F07BF82F70A8780A2802D901F024
:1010D00055FAAF703046B5E72821002008000020FF
:1010E0006C290008281900202DE9FF4F81B00D461A
:1010F000904600242846FFF763FD0746B5F5487F74
:1011000006D2B8F1400F03D20498B0F5006F03D9AE
:10111000002005B0BDE8F08F3846FFF715FC012828
:101120002BD03E464FF480614D48FFF7FDFB8246D1
:101130004B48DFF8309130F81610A1EB0A00012877
:1011400033DD304600F0FCFB0746DFF81CB12BF81E
:10115000157043480097534630F8162031464348EF
:10116000FFF726F94FF4C8613BF81400B84213D1D9
:10117000AC4211D02BF8146012E03846FFF77CFD2A
:10118000064633463A4629463948FFF711F93146B3
:10119000284600F031FCC5E7641CA4B28C42E3D3BE
:1011A00099F80100401C89F801002846FFF708FD66
:1011B00006464FF400645A2221462E48FFF724F8D1
:1011C0002C48049A0199FFF70DF808EB8611234685
:1011D0000022284800F08EFE0746380024D0264919
:1011E0000120885599F80200401C89F802001C492A
:1011F0004FF4806280392048FFF7BCFB99F800006B
:1012000000240A2806D900F0D9FF1CA0FFF7D0F867
:1012100089F8004099F802000A2803D901F0AEF9D4
:1012200089F80240384674E7304601F03DF831460F
:10123000284600F0E1F8002001F042F8012001F01A
:101240003FF8002408E03046FFF716FD22463146FD
:10125000FFF7D2FE641CE4B24445F4D3C7E70000B4
:10126000281900200800002028210020C02900089B
:101270006C29000898080020682700202A2A2A2ABA
:101280002A2A2A2A2A2A2A2A2A2A2A414254205445
:101290004F204E414E442A2A2A2A2A2A2A2A2A2A1A
:1012A0002A2A2A200A00000050F8801F21F001019C
:1012B00001607047F0B588B0024600202FA104AE4F
:1012C00091E83800C96838C607912DA10AC9CDE94F
:1012D00002132BA10AC9CDE900132C4C2168C1F3DC
:1012E00081012B4B002925D0DFF8A8C0012923D08C
:1012F000022923D019462368C3F3031304ADEB5C22
:1013000021FA03F32568C5F3822502AE755D23FA41
:1013100005F52468C4F342341DF8044023FA04F4AC
:1013200032B3012A26D0022A26D0032A00D1204631
:1013300008B0F0BD1946DEE76146DCE71349091F36
:101340000D6805F03F050E68C6F388160F68C7F3F1
:1013500001477F1C7F00096801F48001B1F5800F0F
:1013600000D16346B3FBF5F17143B1FBF7F1C2E77E
:101370000846DDE71846DBE72846D9E7000000000D
:1013800000000000010203040607080908380240B3
:101390000024F40040787D01064901EB9011D1F85A
:1013A000002800F01F03012098400243C1F80028E4
:1013B0007047000000300240064901EB9011D1F85F
:1013C000002800F01F03012098408243C1F8002844
:1013D0007047000000300240064901EB9011D1F83F
:1013E000002800F01F03012098400243C1F80028A4
:1013F000704700000030024010B54FF44874A0421E
:1014000005D2A14203D340F2B532914201D9002066
:1014100010BD0C4B33F810208A4201D0002010BDC3
:10142000884201D1012010BD074AD18923F810104C
:10143000491E88B2D081A04200D8FEE70349488007
:10144000012010BD6812002008000020D8100020E4
:101450002DE9F04F85B040F2FF3400254FF0000A2F
:101460004FF000094FF0000B0020049001260020EF
:1014700000EB84110623042202A800F0DFFC9DF893
:10148000080044280BD19DF80900422807D19DF897
:101490000A00542803D19DF80B0021281CD0641E9B
:1014A000A4B240F2B6308442E1D2012D16D0FFF74B
:1014B00021F9FFF765FC00F081FE01F05FF80020E4
:1014C00000F0FEFE012000F0FBFE022000F0F8FE1E
:1014D000304605B0BDE8F08F0125E6E73F2505EB76
:1014E00084110623042202A800F0A8FC9DF808003D
:1014F00044280BD19DF80900422807D19DF80A0025
:10150000542803D19DF80B00212803D06D1EADB2E5
:10151000402DE4D3FE480026C6709DF80C109DF8BF
:101520000D0001EB00201FFA80F84FEA8811062316
:101530000422684600F082FC01273F2D15D19DF85A
:101540000000442811D19DF8010042280DD19DF8DA
:101550000200542809D19DF80300212805D1002557
:10156000EB48C770204600F0F3FAE94812300480D7
:10157000A0F80280DFF8988388F804500020FFF775
:101580005DFCE4480188A8F810104088A8F80E0017
:1015900040F2FF35002000EB85110623042202A84B
:1015A00000F04CFC9DF8080052280BD19DF8090072
:1015B000422807D19DF80A00542803D19DF80B005A
:1015C000212809D06D1EADB240F2B6308542E1D27D
:1015D000BBF1010F03D04EE04FF0010BF8E73F24C1
:1015E00004EB85110623042202A800F027FC9DF8D5
:1015F000080052280BD19DF80900422807D19DF818
:101600000A00542803D19DF80B00212803D0641E42
:10161000A4B2402CE4D388F805609DF80C009DF836
:101620000D1000EB01201FFA80FB4FEA8B110623FF
:101630000422684600F002FC3F2C12D19DF8000005
:1016400052280ED19DF8010042280AD19DF80200CF
:10165000542806D19DF80300212802D1002488F8DF
:101660000570AB4816300580A0F802B088F8064037
:101670000120FFF7E3FB40F2FF3B40F2B6350020CC
:1016800000EB8B110623042202A800F0D7FB9DF883
:10169000080041280BD19DF80900422807D19DF888
:1016A0000A00542803D19DF80B00212809D0ABF182
:1016B000010B1FFA8BFBAB45E1D2BAF1010F03D04E
:1016C0004EE04FF0010AF8E73F2404EB8B110623AC
:1016D000042202A800F0B2FB9DF8080041280BD1BB
:1016E0009DF80900422807D19DF80A00542803D12B
:1016F0009DF80B00212803D0641EA4B2402CE4D333
:1017000088F807609DF80C009DF80D1000EB012093
:101710001FFA80FA4FEA8A1106230422684600F075
:101720008DFB3F2C12D19DF8000041280ED19DF871
:10173000010042280AD19DF80200542806D19DF8E4
:101740000300212802D1002488F8077070481A305D
:10175000A0F800B0A0F802A088F80840FFF750FBFE
:1017600040F2FF3BDA46002000EB8A1106230422F8
:1017700002A800F063FB9DF8080042280BD19DF8F9
:101780000900532807D19DF80A00542803D19DF879
:101790000B00212809D0AAF1010A1FFA8AFAAA45EA
:1017A000E1D2B9F1010F03D04EE04FF00109F8E7A3
:1017B0003F2404EB8A110623042202A800F03EFB1A
:1017C0009DF8080042280BD19DF80900532807D145
:1017D0009DF80A00542803D19DF80B00212803D05E
:1017E000641EA4B2402CE4D388F809609DF80C0074
:1017F0009DF80D1000EB01201FFA80F94FEA8911C6
:1018000006230422684600F019FB3F2C12D19DF8F4
:10181000000042280ED19DF8010053280AD19DF8FE
:101820000200542806D19DF80300212802D100248B
:1018300088F8097036481E30A0F800A0A0F8029081
:1018400088F80A40FFF746FBD946002000EB8911D3
:101850000623042202A800F0F1FA9DF808004528AA
:101860000BD19DF809004E2807D19DF80A00562893
:1018700003D19DF80B0021280DD0A9F101091FFA11
:1018800089F9A945E1D20498012807D0022000F087
:1018900017FD00201DE601200490F4E73F2404EB2F
:1018A00089110623042202A800F0C8FA9DF8080056
:1018B00045280BD19DF809004E2807D19DF80A0054
:1018C000562803D19DF80B00212803D0641EA4B232
:1018D000402CE4D388F80B609DF80C009DF80D10A7
:1018E00000EB012085B2A90106230422684600F01E
:1018F000A5FA3F2C17D19DF80000452813D19DF87B
:1019000001004E280FD19DF8020056280BD103E0AC
:1019100008000020D81000209DF80300212802D1E3
:10192000002488F80B700548A0F80090458088F8DE
:101930000C400220FFF782FAABE700002A000020EB
:1019400010B54FF480610348FEF7EEFFBDE810408C
:10195000FFF73CB9281900202DE9F04186B000249A
:101960004FF6FF771422204901A8FEF73BFCDFF871
:101970007C8030E0002600252046FEF7E5FF40BBD6
:10198000002001AB002153F8202032F811C0A445FB
:1019900001D1012503E0491C89B20429F5D31DB901
:1019A000401C80B21428EDD39DB9002010494FF49B
:1019B000487331F81020A24201D1012603E0401CF7
:1019C00080B29842F5D326B90A48005D012800D0BC
:1019D0002746641CA4B2B8F80E008442CAD306B0ED
:1019E0003846BDE8F08100005828000808000020B3
:1019F0002821002068270020014A22F81010704793
:101A00002821002030B587B040F60640FFF7C4FC1F
:101A100040F60840FFF7C0FC41F21510FFF7BCFC90
:101A20001D4D4FF4F844224605212846FFF72AF9B8
:101A30002346002202212846FFF75AF923460122B5
:101A400000212846FFF778F9AC15144D23460022F3
:101A500001212846FFF74CF923460222002128469F
:101A6000FFF76AF921462846FFF740F90020019068
:101A7000211D0091029005906100039120210691A3
:101A80000490074C6946204600F01DF8204600F0FF
:101A900009F807B030BD00000018024000200240E5
:101AA00000540140016841F0400101607047C06886
:101AB00080B27047C16070478068084201D0012041
:101AC000704700207047026802F441520B681343CC
:101AD0004A681A438B681343CA681A430B69134355
:101AE0004A691A43896911430160C16921F400619F
:101AF000C16170477CB5054600246946B02000F0FE
:101B000057F89DF8000000F0EF01B02000F0D0F988
:101B1000A9010123002201A800F090F99DF804001A
:101B2000FF2800D00124012000EB8511034600228C
:101B300001A800F083F99DF80400FF2800D00124DB
:101B40009DF80010B02000F0B3F920467CBD0000E5
:101B5000F8B5012500210091840100F0FBF9134F35
:101B60002E0231463846FFF7BFF8D82000F086F93C
:101B7000C4F3074000F082F9C4F3072000F07EF9B7
:101B8000E0B200F07BF931463846FFF7AFF869461E
:101B9000C02000F00DF89DF800104A0701D500257F
:101BA00001E0C907F3D12846F8BD0000002002403B
:101BB0002DE9F04107460C460B4E4FF4807529463F
:101BC0003046FFF791F80F2000F058F9384600F042
:101BD00055F9FF2000F052F9207029463046BDE843
:101BE000F041FFF783B800000020024038B50446FA
:101BF0006946C020FFF7DCFF9DF80000844301D058
:101C0000012038BD002038BD70B500250024FFF745
:101C1000F9FE00F01BF90021A02000F049F9112184
:101C2000B02000F045F9002CFDD1012D07D1AD0207
:101C30002046FFF78DFF641CA4B2AC42F8D3FFF737
:101C400007FCBDE87040FEF7D5BE000070B5044645
:101C50000D4E4FF4807529463046FFF745F81320A6
:101C600000F00CF9C4F3074000F008F9C4F30720B2
:101C700000F004F9E0B200F001F929463046BDE871
:101C80007040FFF733B800000020024070B50446F2
:101C900000F060F90D4E4FF4807529463046FFF78D
:101CA00023F8102000F0EAF8C4F3074000F0E6F84B
:101CB000C4F3072000F0E2F8E0B200F0DFF82946B4
:101CC0003046BDE87040FFF711B800000020024028
:101CD0002DE9F0470546894616460024DFF8448082
:101CE0004FF4807739464046FEF7FEFF022000F0B1
:101CF000C5F84FEA192000F0C1F809F0FF0000F024
:101D0000BDF804E015F8010B00F0B8F8641CB4420B
:101D1000F8D339464046FEF7E9FFBDE8F0470248F0
:101D2000FFF7C2BA00200240005401402DE9F047FD
:101D30000546894616460024DFF84C804FF480772C
:101D400039464046FEF7D0FF032000F097F84FEAEF
:101D5000192000F093F809F0FF0000F08FF8FF2041
:101D600000F08CF805E0FF2000F088F805F8010B82
:101D7000641CB442F7D339464046FEF7B7FFBDE8CE
:101D8000F0470248FFF790BA00200240005401409B
:101D90002DE9F8438146884615461F460126002056
:101DA00000900024E819B0F5046F02D90020BDE8C6
:101DB000F8834046FFF74AFF0120FFF717FF00288E
:101DC000FAD0A9B23A464846FFF7B0FF6946C020AC
:101DD000FFF7EEFE9DF80000C0F30110022805D1C8
:101DE000032C02D2641CE4B2E3E700263046DEE7AF
:101DF0002DE9F041DFF840804FF4807739464046C6
:101E0000FEF772FF9F2000F039F8FF2000F036F84F
:101E10000446FF2000F032F80546FF2000F02EF8BF
:101E2000064639464046FEF761FF200440EA052099
:101E30003043BDE8F081000000200240402B01D972
:101E40000020704702F50062FFF7A2BF70B50A4D8F
:101E50004FF4807421462846FEF746FFFF2000F02D
:101E60000DF821462846FEF741FF0120FFF7BEFE90
:101E70000028FAD070BD00000020024070B5054671
:101E80000A4C02212046FFF717FE0028F9D0294608
:101E90002046FFF70FFE01212046FFF70DFE002828
:101EA000F9D02046FFF703FEC0B270BD00540140D8
:101EB0002DE9F04107460E460D4D4FF48074214642
:101EC0002846FEF711FF1F20FFF7D8FF3846FFF71F
:101ED000D5FF3046FFF7D2FF21462846FEF706FF22
:101EE0000120FFF783FE0028FAD0BDE8F081000052
:101EF000002002402DE9F84305460E461746984655
:101F0000012400200090424639462846FFF7E0FEB3
:101F10003046FFF7BBFE6946C020FFF749FE9DF83B
:101F20000000010701D5002401E0C007F3D14346BA
:101F30003A4631460648FFF72BFF424629460448F9
:101F4000FEF774F900B100242046BDE8F8830000D4
:101F50009808002070B5084D4FF48074214628463B
:101F6000FEF7C2FE0620FFF789FF21462846BDE89E
:101F70007040FEF7BBBE00000020024010B50020FC
:101F8000264A116841F4803111604FF6FF73401CFE
:101F9000116801F4003109B99842F8D11068800342
:101FA00000D4FEE71D484030016841F080510160D7
:101FB0001B49086840F4404008601848083003682E
:101FC0000360036843F400430360036843F4A053D1
:101FD0000360041F134B2360136843F08073136086
:101FE00013689B01FCD50A6842F480320A604A6893
:101FF000D203FCD50A6842F400320A604A689203B0
:10200000FCD5016821F003010160016841F0020183
:10201000016001680907FCD510BD000000380240CE
:102020000070004019644009FFF7A8BF70B511485F
:102030004FF47A710068B0FBF1F1491E4FF0FF35A3
:10204000B1F1807F01D301210BE04FF0E024616109
:102050000F212846FEF75EF90020A06107202061CD
:10206000002101B1FEE72846BDE870400021FEF7DF
:1020700051B90000340000202DE9F05F4FF4A5763F
:1020800000203D4A4FF4006900F132011154401C18
:1020900080B24845F8D30025384C394FDFF8E4804A
:1020A000AB464FF0FF0AA4F800B06680FFF754FC7F
:1020B000A080022000F004F93046FEF7B7FF37F8A1
:1020C00016203146304838F81230FEF771F94B4689
:1020D000002231462848FFF707F8A4F800A0A4F82A
:1020E00002A0A4F804A0022000F0EAF86D1CADB232
:1020F000B5F5967FD7D34FF4B67500244B46002232
:1021000029461D48FEF7F0FF37F8152029461F48DD
:1021100038F81230FEF74CF92846FEF787FF37F8FB
:1021200015202946184838F81230FEF741F9641C8A
:10213000A4B2642CE2D32B2500244B46002229466E
:102140000D48FEF7D1FF37F8152029460F4838F81B
:102150001230FEF72DF92846FEF768FF37F81520F4
:102160002946094838F81230FEF722F9641CA4B257
:10217000642CE2D3BDE8F09F980000202E000020E0
:10218000282100202819002084280008D0280008D1
:1021900010B50020FEF7E4FC0120FEF7E1FC022070
:1021A000FEF7DEFC0020FEF7FFFC0120FEF7FCFC42
:1021B000BDE810400220FEF7F7BC00002DE9F05FFB
:1021C000DFF8D090002699F808003F280BD3FF28AD
:1021D00009D099F80700C0F1010089F8070089F8D3
:1021E0000860012505E0FF283BD0401C89F8080065
:1021F0000025DFF8A0A099F807800AF11A0A3AF83A
:10220000184099F808704FF4046BFF225946224891
:10221000FDF7FAFF4FF4006220491F48FDF7E2FF87
:102220001F484121017042214170542181702121B8
:10223000C170C8F101013AF811100171090A417128
:1022400007EB84115B4600221348FFF753FE074655
:1022500057B1DFF85080012008F80400012D06D0A6
:1022600015E089F80860C3E73846BDE8F09F99F8A3
:102270000700C0F101003AF81000FFF769FC99F877
:102280000700C0F101003AF8100008F80060384675
:10229000EBE7000008000020980800202819002023
:1022A0009C1000206827002070B505462846FEF7E0
:1022B0004BFB044614B92846FEF7FAF9204670BDD8
:1022C0002DE9F84F0646DFF8A0A20025DFF89C9222
:1022D000DFF89CB2002E6BD199F804003F280BD395
:1022E000FF2809D099F80300C0F1010089F8030024
:1022F00089F80450012705E0FF2841D0401C89F8E7
:1023000004000027994899F80340123030F81480EF
:1023100099F804000090FF224FF404619248FDF701
:1023200073FF4FF4C87293498F48FDF75BFF442059
:102330008AF8040842208AF8050854208AF806081A
:1023400021208AF807088948C4F10101123030F8C9
:1023500011008AF80808000A8AF8090800984FF462
:10236000046300EB881100227F48FFF7C3FD044699
:10237000200008D001200BF80800012F06D017E03C
:1023800089F80450BDE72046BDE8F88F99F80300AE
:10239000764FC0F10100123737F81000FFF7D8FB75
:1023A00099F80300C0F1010037F810000BF8005055
:1023B000012E6AD199F806003F280BD3FF2809D0D7
:1023C00099F80500C0F1010089F8050089F8065068
:1023D000012705E0FF2841D0401C89F806000027AE
:1023E000624899F80540163030F8148099F80600D4
:1023F0000090FF224FF404615B48FDF705FF4FF4A6
:10240000C8625D495848FDF7EDFE52208AF804087D
:1024100042208AF8050854208AF8060821208AF804
:1024200007085248C4F10101163030F811008AF84B
:102430000808000A8AF8090800984FF4046300EBC2
:10244000881100224848FFF755FD0446200008D0B7
:1024500001200BF80800012F05D016E089F806507E
:10246000BDE7204690E799F80500404FC0F1010014
:10247000163737F81000FFF76BFB99F80500C0F12D
:10248000010037F810000BF80050022E6AD199F8BD
:102490000C003F280BD3FF2809D099F80B00C0F19E
:1024A000010089F80B0089F80C50012605E0FF288F
:1024B00041D0401C89F80C0000262C4899F80B40AC
:1024C000223030F8147099F80C80FF224FF4046128
:1024D0002548FDF799FED9F82600CAF80000B9F89A
:1024E0002A00AAF8040045208AF804084E208AF839
:1024F000050856208AF8060821208AF807081B4894
:10250000C4F10101223030F811008AF80808000AED
:102510008AF8090808EB87114FF404630022124877
:10252000FFF7E8FC0446200008D001200BF8070064
:10253000012E05D016E089F80C50BDE7204623E7B0
:1025400099F80B00094EC0F10100223636F8100050
:10255000FFF7FEFA99F80B00C0F1010036F8100001
:102560000BF8005020460FE79808002008000020D4
:1025700068270020D8100020681200202DE9F05FA5
:10258000DFF8E090002699F80A003F280BD3FF28D7
:1025900009D099F80900C0F1010089F8090089F80B
:1025A0000A60012505E0FF2841D0401C89F80A0097
:1025B0000025DFF8B0A099F809800AF11E0A3AF860
:1025C000184099F80A704FF4046BFF2259462648C8
:1025D000FDF71AFE4FF4C86224492348FDF702FEB6
:1025E00023498022A1F51D60FDF7FCFD2148422111
:1025F000017053214170542181702121C170C8F1B3
:1026000001013AF811100171090A417107EB8411B7
:102610005B4600221448FFF76DFC074657B1DFF810
:102620005880012008F80400012D06D017E089F831
:102630000A60BDE73846BDE8F09F99F80700094CED
:10264000C0F101001A3434F81000FFF781FA99F84C
:102650000700C0F1010034F8100008F800603846A7
:10266000E9E7000008000020980800202821002049
:10267000A81800209C1000206827002070B5044690
:102680000D460020294AA11A131594422DD00BDCC7
:102690002749621819D09A421BD0B2F5006F1CD09E
:1026A000B2F5406F28D11CE0994222D0B1F5184F05
:1026B00003D0B1F51C4F1FD103E00320FEF7FAFD54
:1026C0001AE00320FEF7F6FD16E00220FEF7F2FD09
:1026D00012E00220FEF7EEFD0EE00220FEF7EAFD1A
:1026E0000AE00220FEF7E6FD06E00220FEF7E2FD2A
:1026F00002E00220FEF7DEFDE1680A044FF6F07109
:102700000AD5400000EB5500B0FBF5F00140C0F3E6
:1027100042021143A16070BD00EB5500B0FBF5F023
:10272000014000F00F021143A16070BD007800402D
:1027300000BCFFBFC1F308014160704710B5354AC6
:10274000811A131590424FD014DC334940182DD014
:10275000984235D0B0F5006F3CD0B0F5406F57D1FE
:1027600040F614042046FEF737FE2046BDE8104030
:10277000FEF722BE994241D0B1F5184F0CD0B1F509
:102780001C4F45D140F605142046FEF725FE204695
:10279000BDE81040FEF710BE40F604142046FEF7D8
:1027A0001BFE2046BDE81040FEF706BE40F61104B1
:1027B0002046FEF711FE2046BDE81040FEF7FCBDA6
:1027C00040F612042046FEF707FE2046BDE8104002
:1027D000FEF7F2BD40F613042046FEF7FDFD20464D
:1027E000BDE81040FEF7E8BD40F61E042046FEF7A7
:1027F000F3FD2046BDE81040FEF7DEBD40F61F04A5
:102800002046FEF7E9FD2046BDE81040FEF7D4BDA6
:1028100010BD00000078004000BCFFBFC16841F45B
:102820000051C160704700EB9110006801F01F0279
:1028300001219140084201D00120704700207047DB
:10284000C26822F004020A43C2607047C26822F0E4
:1028500008020A43C26070471A0000201E000020D0
:1028600022000020260000202A0000201A0000205C
:102870001E00002022000020260000202A00002048
:102880000000000041667465722045726173696ED4
:1028900067200A204C6F676963616C20426C6F632C
:1028A0006B3A20256420506879736963616C20421B
:1028B0006C6F636B3A20256420426C6F636B20451C
:1028C0007261736520434E543A202564200A00004B
:1028D00050726F6772616D6D653A204C6F67696306
:1028E000616C20426C6F636B3A20256420506879DC
:1028F000736963616C20426C6F636B3A20256420BE
:10290000426C6F636B20457261736520434E543A8D
:10291000202564200A000000496E697469616C69B1
:102920006174696F6E2053756363657373210A2048
:1029300042616420426C6F636B20496E666F3A0A95
:102940002042616420626C6F636B206E756D6265FE
:10295000723A202564204C61737456616C6964423C
:102960006C6F636B3A202564200A00002A2A2A2A09
:102970002A2A2A2A2A42616420426C6F636B2A2A1F
:102980002A2A2A2A2A2A2A2A0A42616420626C6F89
:10299000636B2064657465637465643A20257820F0
:1029A0004F726967696E616C2050423A2025582049
:1029B000557064617465642050423A2025580A00BD
:1029C0002A2A2A2A2A2A2A2A2A2A2A2A2A2A2A573A
:1029D000656172204C6576656C696E672A2A2A2AC1
:1029E0002A2A2A2A2A2A2A2A2A200A706879626C24
:1029F0006F636B202564206572735F636E7420259E
:102A00006420617665726167652025642072706C50
:102A10005F626C6B20256400382A000800000020EB
:102A200098000000D0030008D02A00089800002079
:102A3000D04A0000E0030008000000000000000091
:102A40000000000000000000000000000000000086
:102A50000000FFFFFFFFFFFFFFFFFFFFFFFFFFFF84
:102A6000FFFFFFFFFFFFFFFFFFFFFFFF00C2EB0BBA
:102A70000411000201000D0E0628280000020000CB
:102A800000040000040C040C050C000C020C010CEA
:102A90000010024000100240001402400400000038
:102AA000080000000004000000000240000802408E
:102AB000000402400100000000200000004000006F
:102AC00001000000002000000040000000000000A5
:04000005080001AD41
:00000001FF
