:020000040800F2
:10000000B8470020C1010008130300080F030008CF
:10001000110300080B030008C903000800000000DA
:10002000000000000000000000000000370300088E
:100030000D03000800000000350300083903000824
:10004000DB010008DB010008DB010008DB01000820
:10005000DB010008DB010008DB010008DB01000810
:10006000DB010008DB010008DB010008DB01000800
:10007000DB010008DB010008DB010008DB010008F0
:10008000DB010008DB010008DB010008DB010008E0
:10009000DB010008DB010008DB010008DB010008D0
:1000A000DB010008DB010008DB010008DB010008C0
:1000B000DB010008DB010008DB010008DB010008B0
:1000C000DB010008DB010008DB010008DB010008A0
:1000D000DB010008DB010008DB010008DB01000890
:1000E000DB010008DB010008DB010008DB01000880
:1000F000DB010008DB010008DB010008DB01000870
:10010000DB010008DB010008DB010008DB0100085F
:10011000DB010008DB010008DB010008DB0100084F
:10012000DB010008DB010008DB010008DB0100083F
:10013000DB010008DB010008DB010008DB0100082F
:10014000DB010008DB010008DB010008DB0100081F
:10015000DB010008DB010008DB010008DB0100080F
:10016000DB010008DB010008DB010008DB010008FF
:10017000DB010008DB010008DB01000800000000D3
:10018000DB010008DB010008DB010008DB010008DF
:10019000DB010008DB010008DB01000800000000B3
:1001A000DB010008DB010008DB010008DFF80CD0F0
:1001B00000F07AF800480047450F0008B8470020D3
:1001C0000648804706480047FEE7FEE7FEE7FEE7F1
:1001D000FEE7FEE7FEE7FEE7FEE7FEE73D03000879
:1001E000AD01000840EA01039B0703D009E008C9FC
:1001F000121F08C0042AFAD203E011F8013B00F8EC
:10020000013B521EF9D27047D2B201E000F8012B37
:10021000491EFBD270470022F6E710B513460A4686
:1002200004461946FFF7F0FF204610BD30B50446DE
:100230000020034600E05B1C934203D2E05CCD5CEF
:10024000401BF8D030BD2DE9F05F054600209246F6
:100250009B4688460646814640241BE02846414688
:100260004746224600F041F853465A46C01A91418B
:1002700010D311461846224600F028F82D1A67EBD5
:1002800001084F4622460120002100F01FF817EB1D
:1002900000094E41201EA4F10104DFDC484631462E
:1002A0002A464346BDE8F09F064C074D06E0E0684D
:1002B00040F0010394E8070098471034AC42F6D3AD
:1002C000FFF778FF7030000890300008202A04DB28
:1002D000203A00FA02F1002070479140C2F1200359
:1002E00020FA03F3194390407047202A04DB203A98
:1002F00021FA02F00021704721FA02F3D040C2F146
:1003000020029140084319467047FEE7FEE7FEE7EA
:10031000FEE7FEE70907090E002806DA00F00F00E5
:1003200000F1E02080F8141D704700F1E02080F813
:1003300000147047FEE7FEE700F07CBB1E4818B4CF
:10034000016841F4700101601C48016841F001013D
:10035000016001688907FCD5184A0832116841F02C
:1003600080011160002300930099491C00915029DD
:10037000FAD3116841F09001116000930099491C73
:1003800000915029FAD3116821F00301116001682E
:100390000B4C21400160016821F480210160136051
:1003A000106806490748091D086004480C300360BE
:1003B00018BC02F02FB9000088ED00E000380240C0
:1003C000FFFFF6FE10300024FEE700000FB4054BDF
:1003D00010B503A9044A029800F018F810BC5DF8A3
:1003E00014FB0000FD0A0008A000002002E008C87D
:1003F000121F08C1002AFAD170477047002001E09F
:1004000001C1121F002AFBD1704700002DE9FF4FE8
:100410008DB09B460F460446002606E025280BD0EB
:100420005A460F999047641C761C20780028F5D115
:1004300011B03046BDE8F08F0025A846012298494A
:1004400000E0054314F8013F203B02FA03F00842A4
:10045000F7D120782E2817D114F8010F45F00405A4
:100460002A280ED06FF02F022078A0F13001092940
:100470000AD808EB880102EB410100EB0108641C7B
:10048000F2E757F8048B641C20786C280DD004DC4C
:100490004C2812D06A2811D104E074280DD07A2893
:1004A0000CD10AE045F4001507E0617845F48015A9
:1004B000814202D1641C05F58015641C2278692AEA
:1004C00045D008DC002AB3D0582A69D0632A10D05E
:1004D000642A08D13BE0702A67D0732A13D0752AAA
:1004E0005CD0782A5CD010465A460F999047761C0B
:1004F000D3E017F8040B8DF8000000208DF8010000
:10050000E946012003E057F8049B4FF0FF306907EC
:100510004FF0000501D40AE06D1C45450DDA854217
:10052000FADB19F805100029F6D106E06D1C8542AA
:10053000FCDB19F805100029F8D12E4404E019F865
:10054000010B5A460F9990476D1EF8D2A5E00A207C
:100550000021CDE90801C5F3025002280DD001CFDA
:10056000C117031E71F100030DDA4FF0000CD0EB40
:100570000C006CEB01012D2308E0FF1D27F007079D
:10058000F7E80201EDE72B0504D52B238DF8283081
:1005900001233BE0EB0739D02023F7E70A2000E0F6
:1005A00010200021CDE9080107E01020002145F0CE
:1005B0000405CDE908014FF00808C5F302500228F0
:1005C0000FD001CF00214FF0000A2B071FD5702A52
:1005D0000DD0DDE908C38CF0100C5CEA030C0CD0E4
:1005E00015E0FF1D27F00707F7E80201EBE74022BF
:1005F0008DF828204FF0010A0BE050EA010306D0E5
:1006000030238DF828308DF8292002239A46582A65
:1006100004D024A20DF120090B9209E026A2F9E7EB
:10062000DDE90823FFF70FFE0B9B9B5C09F8013DFA
:1006300050EA0102F4D1ADEB0900203008906807C0
:1006400001D44FF001080899884502DDA8EB0100AC
:1006500000E000208046002506E00AA85A46405DDA
:100660000F9990476D1C761C5545F6DB04E0302051
:100670005A460F999047761CB8F10001A8F101087D
:10068000F5DC05E019F8010B5A460F999047761CE6
:100690000899481E08900029F4DC641CC5E6000097
:1006A0000928010030313233343536373839616248
:1006B000636465660000000030313233343536370C
:1006C00038394142434445460000000030B54FF4FC
:1006D00048740C4BA04205D20B4D1A8A25F8102005
:1006E000521E1A821A8AA24200D8FEE7588A401C7B
:1006F00080B25882054B188003EB40005A8041803D
:1007000030BD000068000020B42A00202429002009
:100710002DE9F05F794E002540F2FF347582C82143
:100720007748FFF778FD4FF4487739467548FFF76B
:1007300072FD4FF400617448FFF76DFD73490020AE
:1007400021F81000401C80B2B842F9D37049002053
:100750004FF48063AA4601F800A0401C80B2984282
:10076000F9D3DFF89891002509F11409DFF8908199
:1007700040F2B6370CE0204601F022FCA0B1708AAE
:10078000401C80B2708208EB40004480641EA4B21A
:10079000BC42F0D86D1CEDB2022DF9D3FF2086F8D3
:1007A00003A03071002517E029F815407473224624
:1007B000294658A0FFF70AFE641EA4B2EAE72046C5
:1007C00001F0FEFBC8B1708A401C80B2708208EB59
:1007D00040004480641EA4B2BC42F0D86D1CEDB24F
:1007E000022DF9D3D34686F807A04FF0FF0A86F80A
:1007F00008A0B146002546461BE0404829461C306B
:1008000020F8154039F8152042A0FFF7DFFD641EDF
:10081000A4B2E3E7204601F0D3FBC0B1B9F812005F
:10082000401C80B2A9F8120006EB40004480641E10
:10083000A4B2BC42EED86D1CEDB2022DF9D3C8466D
:1008400089F809B0D14688F80AA0002515E02B48A0
:10085000203020F81540641EA4B2ECE7204601F0D9
:10086000AFFBB8B1B8F81200401C80B2A8F8120073
:1008700006EB40004480641EA4B2BC42EED86D1C5E
:10088000EDB2022DF9D388F805B0DA4688F8069063
:1008900000251AE0194822461830294620F815404C
:1008A00021A0FFF793FD641EA4B2E8E7204601F003
:1008B00087FBB0B1B8F81200401C80B2A8F8120053
:1008C00006EB40004480641EA4B2BC42EED86D1C0E
:1008D000EDB2022DF9D388F80BA088F80C90BDE892
:1008E000F09F064822462430294620F8154013A0E0
:1008F000FFF76CFD641EA4B2E9E700006800002069
:1009000024290020B42A002074350020743D0020E2
:10091000743100200D4442545F426C6F636B5B2561
:10092000785D3D25780A00000D5242545F426C6F9D
:10093000636B5B25785D3D25780A00000D454E56BA
:100940005F426C6F636B5B25785D3D25780A000024
:1009500030B50022084C114640F21F3534F81130F2
:10096000491C89B230F81330A9421A44F6D3B2FBBD
:10097000F5F080B230BD0000743D0020F0B5ADF55B
:100980006F7D04464FF46E716846FFF744FC002209
:100990004FF46D7668460C4B01250CE033F81210CD
:1009A000B1420CD8475C1FB101200DF56F7DF0BD41
:1009B000521C455492B2A242F0DB0020F5E703A09E
:1009C000FFF704FDF9E70000743D00204572726FE7
:1009D000723A204C32502076616C75652025642077
:1009E0006973206F7574206F662076616C6964206E
:1009F00072616E67652E0A0030B5094B054600200E
:100A00001C88014608E003EB41029288AA4201D10A
:100A1000012030BD491C89B2A142F4D330BD000091
:100A2000242900200249086008680028FCD170478A
:100A30000400002003480168002902D00168491E13
:100A4000016070470400002070B5022000F0E0F95A
:100A500010A0FFF7BBFC1D4D2888002819D168881D
:100A600000F044FB0024A9886888224600F020FB9F
:100A7000641CE4B2402CF6D315A0FFF7A7FCFF20BE
:100A80002880022001F068FFA888BDE8704000F0CF
:100A90002DBB70BD2A2A2A2A2A2A2A2A2A2A2A551E
:100AA0006E657870656374656420506F7765722039
:100AB0004C6F737320436865636B696E672A2A2ADB
:100AC0002A2A2A2A2A2A2A2A2A0A000094000020EE
:100AD000556E657870656374656420506F776572D4
:100AE000204C6F73732C2044617461205265636FD6
:100AF000766572696E672E2E2E0A000070B5074D5E
:100B00000446C1B2284602F049F90721284602F0FE
:100B10008CF90028F9D0204670BD0000001001407B
:100B20002DE9F04106464FF4406000F06DFE1F488D
:100B3000008800F069FE1D4C1D4F0C34072138461B
:100B4000226800F0B3F8251D072138462A6800F016
:100B5000ADF8012202213846236800F0D6F80222BF
:100B600000213846236800F0F4F8012202213846BB
:100B70002B6800F0CAF80222002138462B6800F0EA
:100B8000E8F8304602F00EF94FF4E131304602F059
:100B9000C5F80421304602F053F90821304602F02E
:100BA00055F93046BDE8F04102F03AB90C0000209A
:100BB0000000024070B504460F4830F8140000F001
:100BC00023FE0D4D00221835A5F10C0655F82430F2
:100BD00056F82400012100F098F855F8243056F812
:100BE00024000222002100F0B4F856F8241055F831
:100BF0002400886270BD0000200000200449044ADF
:100C00000C3A51F8201052F8200081627047000021
:100C100038000020014931F810007047743D002071
:100C20002DE9F05F4FF6FF77DFF8489083463E46A8
:100C30003D46002409F5806840F21F3A2046FFF740
:100C4000DBFE48B919F8040030B938F81400A8429E
:100C500002D20500264603D0641CA4B25445EDD34D
:100C6000BE4203D104A0FFF7B1FB5E463046BDE8AB
:100C7000F09F000074310020574541524C455645C5
:100C80004C494E47204641494C45442C204E4F206C
:100C9000454D50545920424C4F434B20494E20550E
:100CA00053455220415245410A000000F0B5046A04
:100CB000456A00234FF0010C4FF00F0E0CFA03F6BB
:100CC000164206D09E000EFA06F7BC4301FA06F75C
:100CD0003C435B1C9BB2082BF0D308230CFA03F6B1
:100CE000164207D09E00203E0EFA06F7BD4301FAD9
:100CF00006F73D435B1C9BB2102BEFD304624562A9
:100D0000F0BD81627047816170472DE9F047056849
:100D1000C66800244FF0010A4FF003090AFA04F7ED
:100D20001F420ED0670009FA07FC25EA0C0526EAE7
:100D30000C0601FA07F802FA07FC48EA05054CEA36
:100D40000606641CA4B2102CE8D30560C660BDE89A
:100D5000F087F0B50129416818D099434160846853
:100D600000210126032706FA01F51D4208D04D0097
:100D700007FA05FC24EA0C0402FA05FC4CEA040418
:100D8000491C89B21029EED38460F0BD1943E5E710
:100D90002DE9F0411C4D1D4E40F2B5300024288253
:100DA0004FF4487706F5C87802E0288AB8420AD39B
:100DB000204601F005F901281CD028F81440641CD5
:100DC000A4B2BC42F1D3688A3080288A70800E4871
:100DD000FF212C300180002141808180BDE8F0811D
:100DE000688A401C81B2698206EB4101288A4880EA
:100DF000401E2882288A01F0E3F80128F0D021461D
:100E00000846FFF763FCDAE7680000202429002089
:100E100070B52B4D4FF4006328B3012835D002285C
:100E200020D1E97A05F124001C4630F81100297B15
:100E3000002201EB8011234801F002FA21480168E9
:100E4000E96281882986011911F8011CFF2931D036
:100E50001B492044323110F8032D0A7042784A8031
:100E60008078888070BD1648E9781430002230F808
:100E70001100297901EB8011124801F0E1F91149C3
:100E80004FF4C87201F5046010E00D48697918301C
:100E9000002230F81100A97901EB8011094801F016
:100EA000CFF908494FF4C86201F51D60BDE87040F4
:100EB000FFF798B9641E2404240CC4D170BD00004F
:100EC00068000020E420002070B519494FF4006349
:100ED000A1F12000427A807A31F81210002200EB52
:100EE0008111144801F0ACF94FF4C862114912485D
:100EF000FFF778F91149802201F51D60FFF772F9BB
:100F00000F4D002005F180044FF480630126C208D4
:100F100000F00701AA5C06FA01F10A4201D00121A2
:100F200000E000212154401C80B29842EFD370BDF4
:100F300088000020E4200020743D002024270020A9
:100F4000F43000202DE9F0412C4A0020552142F2D6
:100F50001076AA2302F500644FF40065115423545F
:100F6000401CA842FAD301F0A9FB0A20FFF75AFD62
:100F700001F054FC224C2046FFF7D2FD01F09EFB0D
:100F80000A20FFF74FFD01F049FC2046FFF7C8FD9E
:100F90001CA0FFF71BFA00F0CFF9204F20487A88F9
:100FA0003988FFF713FA002406E007EB4400818834
:100FB0001CA0FFF70BFA641C3888A042F5D801F09A
:100FC0003DFA19490860014618A0FFF7FFF91DA076
:100FD000FFF7FCF900F0A4F9002409E0214629A05C
:100FE000FFF7F4F92A462A49044800F003FB641C81
:100FF000B442F3D30020BDE8F0810000A40000203B
:1010000000100140496E697469616C697A696E67A4
:101010002E2E2E2E2E2E2E2E2E2E0A00242900208D
:10102000E02E000825642000000000200A0D54680E
:101030006520466C6173685F49443A307825580AE8
:101040000D0A0D002A2A2A2A2A2A2A2A2A2A2A2A84
:101050002A2A2A2A2A4345525441494E20424C4FBB
:10106000434B204552532050474D20544553542A5A
:101070002A2A2A2A2A2A2A2A2A2A2A2A2A2A2A2AD0
:101080002A0A00004359434C453A2025640A0000CF
:10109000A408002070B50546002400F0BFFFA90198
:1010A0002046BDE870400123002201F08DBA000007
:1010B00070B51446054602EB81114FF404663346C1
:1010C0000022084801F0BCF8002809D004EB851183
:1010D00033460022034801F033FA034A01215155F7
:1010E00070BD0000E4200020743100202DE9F84F8D
:1010F000DFF850910546B0F5487F02D239F81570F7
:101100000BE040F2B530854206D929464EA0FFF7E4
:101110005DF90020BDE8F88F2F46DFF8488138469A
:10112000FFF76AFC012812D03C46224629464EA011
:10113000FFF74CF9204600F071FF060012D0544F23
:10114000DFF850914FF0000A012E26D037E038F832
:1011500015403A46234629464F48FFF737F929F804
:101160001540E2E721464DA0FFF730F92146284619
:1011700001F0E4FB2046FFF78DFF2146284600F0F2
:1011800073FB002001F0E8FB012001F0E5FB38F8DB
:101190001510284601F028FAC1E737F81400494A2B
:1011A000401C27F8140099F80010491C89F8001019
:1011B00002F804A099F80210491C89F802104FF4B3
:1011C00080613348FFF7C4FB37F814108046A1EB69
:1011D0000800BB4601281CDDB4F5487F19D24FF446
:1011E00080612B48FFF7B4FB2046FFF719FD009004
:1011F00007463BF81420434621463348FFF7E6F8FC
:101200003946284601F0F0F999F80100401C89F8A8
:10121000010099F800004C460A2806D92BA0FFF7D8
:10122000D5F801F011FB84F800A0A078402806D979
:1012300030A0FFF7CBF801F0D9FC84F802A03046CB
:1012400068E70000743D0020426C6F636B204E6FB6
:10125000202564204F5554204F4620424F554E4480
:1012600021000000B42A00202A2A2A2A2A2A2A2A0F
:101270002A4552415345204C423A25642050423A77
:1012800025642A2A2A2A2A2A2A2A2A2A0A00000027
:101290007435002068000020C02F00082A2A2A2A5E
:1012A0002A2A2A2A2A4552415345204641494C2A96
:1012B0002A2A2A2A2A2A2A2A2A0A50423A20255841
:1012C0000A00000074310020143000082A2A2A2A5B
:1012D0002A2A2A2A2A2A2A2A55706174652041421C
:1012E0005420746F2061727261792A2A2A2A2A2A6C
:1012F0002A2A0A002A2A2A2A2A2A2A2A2A2A2A2A98
:101300005570617465204253544C325020746F20E4
:1013100061727261792A2A2A2A2A2A2A2A0A000054
:1013200070B5002440F21F352046FFF7DFFE641C35
:10133000A4B2AC42F8D370BD70B500F0CBFE01F0A2
:101340007DF80D490D4C83B20022886234F81250AA
:101350009D4209D101460AA0FFF738F800F0AEFA25
:10136000BDE87040FFF770BB521C0D2AEEDB014652
:101370000BA0FFF72BF8FEE768000020C62E000840
:10138000537570706F72746564204E414E442046F0
:101390006C61736820494420307825580A000000A9
:1013A0004572726F723A20556E737570706F7274F9
:1013B0006564204E414E4420466C61736820494468
:1013C00020307825580A00002DE9FF5F504C0D466B
:1013D0009B4634F815A01646B1F5487F05D2402E3D
:1013E00003D24FF40068C34503D9002004B0BDE820
:1013F000F09F5046FFF700FBDFF81891012809D154
:1014000039F8157052463B4629464348FEF7DEFF41
:1014100024F8157034F815705A22444641463F4866
:10142000FEF7F2FE5A463D480099FEF7DBFE3346D2
:101430003A4629463AA0FEF7C9FF06EB8711234634
:101440000022364801F07CF8DFF804A15FEA0008CA
:101450004FF0010B19D03F4901F807B09AF802107C
:10146000491C8AF802103B4F4FF48066A7F18002B6
:1014700000205C463D5CC10800F00703002D555C70
:1014800004FA03F327D01D4326E033A0FEF79EFFA6
:101490003946284601F052FA3846FFF7FBFD394637
:1014A000284600F0E1F9002001F056FA012001F091
:1014B00053FA39F81590002406E02246394648468A
:1014C000FFF7F6FD641CE4B2B442F6D34946284661
:1014D00001F08AF8C7E79D43401C80B25554B042E2
:1014E000C8D39AF80000002554460A2805D901F00F
:1014F000ABF929A0FEF76AFF2570A078402805D92E
:1015000030A0FEF763FF01F071FBA57040466DE768
:10151000743D0020B42A0020C02F0008E4200020E1
:101520002A2A2A2A2A2A2A2A2A50524F4752414D29
:10153000204C423A25642050423A256420504147CD
:10154000453A25642A2A2A2A2A2A2A2A2A2A0A00E5
:1015500068000020743100202A2A2A2A2A2A2A2AEE
:101560002A2A2A2A2A2A2A50726F6772616D204617
:1015700061696C65642C20426C6F636B20526570EE
:101580006C6163696E672A2A2A2A2A2A2A2A2A2A49
:101590002A2A2A200A0000002A2A2A2A2A2A2A2A53
:1015A0002A2A2A2A2A2A2A41425420544F204E41CC
:1015B0004E442A2A2A2A2A2A2A2A2A2A2A2A2A2057
:1015C0000A0000002A2A2A2A2A2A2A2A2A2A2A2A19
:1015D0002A2A2A4C325042535420544F204E414E16
:1015E000442A2A2A2A2A2A2A2A2A2A2A2A2A200A6B
:1015F000000000002DE9F04F93B08A468346142284
:1016000035490DA8FEF7EEFD334934221431684602
:10161000FEF7E8FD314F4FF00A08C8264FF4006985
:101620003046FFF7F7FA00254CE03220B5FBF0F129
:1016300000FB115070B96DB14FF44870FFF79EF97F
:1016400040B1002000F0EAFC002232231146684637
:1016500000F076FF002038807E8000F00FFCB8801C
:10166000024679881EA0FEF7B1FE00247988B8886A
:101670002246FFF71DFD641CE4B2402CF6D3022085
:1016800001F06AF93046FFF731FD0024E0074B46D0
:101690002246314601D0584600E05046FFF794FEFE
:1016A000641CE4B2402CF1D3B98815A0FEF78EFE7D
:1016B000FF203880B888FFF719FD022001F04CF9AF
:1016C0006D1CEDB24545B0D3761CB6B2E62EA7D35D
:1016D00013B05046BDE8F08F802E00089400002023
:1016E0004261636B696E67205570204461746120AC
:1016F00066726F6D20256420746F202564200A00B7
:101700004F7065726174696F6E20446F6E65212041
:1017100045726173696E67206261636B2D7570201D
:10172000626C6F636B202564200A0000F0B52FA166
:1017300088B03AC98DE83A002DA1304CD1E900318A
:10174000CDE904312AA10246D1E90031CDE90631C3
:10175000216800202A4BC1F3810129B1DFF8A4C020
:10176000012903D0022903D019461AE0614618E086
:101770002249091F0D6805F03F070D68C5F388165B
:101780000D680968C5F301456D1C6D0001F4800109
:10179000B1F5800F00D16346B3FBF7F17143B1FBA4
:1017A000F5F123682568C3F303131DF8033021FA0C
:1017B00003F3C5F3822504AE2468755D23FA05F5AD
:1017C000C4F3423406AE345D23FA04F442B1012A74
:1017D00008D0022A08D0032A00D1204608B0F0BD64
:1017E0000846FBE71846F9E72846F7E7000000003F
:1017F000000000000102030406070809083802403F
:101800000024F40040787D01064901EB9011D1F8E5
:10181000002800F01F03012098400243C1F800286F
:101820007047000000300240064901EB9011D1F8EA
:10183000002800F01F03012098408243C1F80028CF
:101840007047000000300240064901EB9011D1F8CA
:10185000002800F01F03012098400243C1F800282F
:10186000704700000030024010B54FF448739842B2
:101870000AD2994208D340F2B532914204D80C4CB6
:1018800034F810208A4201D0002010BD884201D1D6
:10189000012010BD074A118A24F81010491E88B291
:1018A0001082984200D8FEE703494880F0E7000024
:1018B000B42A002068000020242900202DE9F04FE0
:1018C0008DB00025DFF8E0B440F2FF3634460C95C9
:1018D0000B950A950127ABF1200A0995002000EB32
:1018E000841106230422684600F0CEFD9DF8000016
:1018F00044280BD19DF80100422807D19DF8020031
:10190000542803D19DF80300212806D0641EA4B2F8
:1019100040F2B6308442E1D2EDB33F2505EB8411AD
:1019200006230422684600F0AFFD9DF8000044281D
:101930000BD19DF80100422807D19DF802005428E0
:1019400003D19DF80300212803D06D1EADB2402DB8
:10195000E4D34FF000088AF803809DF804009DF856
:101960000510062300EB012087B2B901042202A86A
:1019700000F08AFD4FF001093F2D17D19DF80800B6
:10198000442813D19DF8090042280FD19DF80A0080
:1019900054280BD100E01BE09DF80B00212805D155
:1019A00000258AF80390204600F038FBFE480C38EA
:1019B0000480478054468AF804500020FFF728FA34
:1019C000FA4840F2FF3701886182408820824AE06D
:1019D000FEF79EFEFFF7DCF900F036FF01F006F996
:1019E000002000F0B9FF012000F0B6FF022000F057
:1019F000B3FFED4804AA0C380188ADF810104088F8
:101A0000ADF81200E848001F0188ADF814104088B6
:101A1000ADF81600BBF80010ADF81810BBF80200C6
:101A2000ADF81A00E04808380188ADF81C1040886D
:101A3000ADF81E00DC48001D0188ADF8201040887C
:101A4000ADF82200002032F81010B14200D20E464C
:101A5000401CC0B20A28F6D3761EAAF80E6038469B
:101A60000DB0BDE8F08F002000EB871106230422A3
:101A7000684600F009FD9DF8000052280BD19DF842
:101A80000100422807D19DF80200542803D19DF897
:101A90000300212807D07F1EBFB240F2B630874234
:101AA000E1D20A98F0B33F2505EB87110623042203
:101AB000684600F0E9FC9DF8000052280BD19DF823
:101AC0000100422807D19DF80200542803D19DF857
:101AD0000300212803D06D1EADB2402DE4D384F85D
:101AE00005809DF804009DF80510062300EB0120F9
:101AF0001FFA80FA4FEA8A11042202A800F0C4FCFF
:101B00003F2D14D19DF80800522810D19DF80900EE
:101B100042280CD19DF80A00542808D19DF80B00EA
:101B2000212800E00CE002D1002584F805909E48B1
:101B300008380780A0F802A0A5710120FFF768F916
:101B400040F2FF35002000EB851106230422684691
:101B500000F09AFC9DF8000041280BD19DF801008F
:101B6000422807D19DF80200542803D19DF80300B4
:101B7000212807D06D1EADB240F2B6308542E1D2C9
:101B80000C98E8B33F2707EB85110623042268462B
:101B900000F07AFC9DF8000041280BD19DF801006F
:101BA000422807D19DF80200542803D19DF8030074
:101BB000212803D07F1EBFB2402FE4D384F80780D2
:101BC0009DF804009DF80510062300EB01201FFA84
:101BD00080FA4FEA8A11042202A800F055FC3F2F38
:101BE00014D19DF80800412810D19DF80900422821
:101BF0000CD19DF80A00542808D19DF80B0000E094
:101C00001CE0212802D1002784F807906649F8B229
:101C1000091F0D80A1F802A02072E2794FF400653F
:101C20002B4631F81210002200EB8111604800F0C1
:101C300007FB2A465E495F48FEF7D4FA40F2FF37B9
:101C4000002000EB871106230422684600F01CFCEC
:101C50009DF8000042280BD19DF80100532807D1C0
:101C60009DF80200542803D19DF80300212807D0D5
:101C70007F1EBFB240F2B6308742E1D20B98E8B384
:101C80003F2505EB871106230422684600F0FCFB84
:101C90009DF8000042280BD19DF80100532807D180
:101CA0009DF80200542803D19DF80300212803D099
:101CB0006D1EADB2402DE4D384F809809DF8040078
:101CC0009DF80510062300EB01201FFA80FA4FEA69
:101CD0008A11042202A800F0D7FB3F2D14D19DF8F1
:101CE0000800422810D19DF8090053280CD19DF816
:101CF0000A00542808D19DF80B0000E00BE02128D1
:101D000002D1002584F80990ABF80070ABF802A06E
:101D1000A572FFF7D9F840F2FF3740F2B635002040
:101D200000EB871106230422684600F0ADFB9DF806
:101D3000000045280BD19DF801004E2807D19DF8E1
:101D40000200562803D19DF80300212805D07F1EEC
:101D5000BFB2AF42E3D2099870B33F2505EB8711BC
:101D600006230422684600F08FFB9DF800004528FA
:101D70000BD19DF801004E2807D19DF8020056288E
:101D800003D19DF80300212803D06D1EADB2402D74
:101D9000E4D384F80B809DF804009DF8051000EB57
:101DA00001201FFA80F808E0880000202429002084
:101DB000E42000207435002024E04FEA8811062337
:101DC000042202A800F060FB3F2D12D19DF808000C
:101DD00045280ED19DF809004E280AD19DF80A0029
:101DE000562806D19DF80B00212802D1002584F841
:101DF0000B9021480780A0F8028025730220FFF78E
:101E000007F802E0022000F0A7FD1B4804AA1038E2
:101E10000188ADF810104088ADF812001648083857
:101E20000188ADF814104088ADF81600BBF800101A
:101E3000ADF81810BBF80200ADF81A000E480C38C7
:101E40000188ADF81C104088ADF81E000A480188D2
:101E5000ADF820104088ADF82200002032F81010B4
:101E6000B14200D20E46401CC0B20A28F6D3761EFC
:101E7000E6810020F4E500008C0000202DE9F04709
:101E80001248134E4FF6FF79048A4FF44877A6F5AF
:101E9000406816E000252046FEF7AEFD78B936F81A
:101EA0001010A1420BD0401C80B2B842F7D335B914
:101EB00018F80400012802D02046BDE8F087641E0F
:101EC000A4B2002CE6D14846F7E7000068000020E5
:101ED000743D002030B587B040F60640FFF794FC13
:101EE00040F60840FFF790FC41F21510FFF78CFC1C
:101EF0001D4D4FF4F844224605212846FEF7D6FE34
:101F00002346002202212846FEF7FFFE2346012237
:101F100000212846FEF71DFFAC15144D2346002274
:101F200001212846FEF7F1FE234602220021284621
:101F3000FEF70FFF21462846FEF7E5FE0020211D93
:101F4000CDE900106100CDE902012021CDE90501B4
:101F5000074C04906946204600F01BF8204600F02C
:101F600009F807B030BD0000001802400020024010
:101F700000540140016841F0400101607047C068B1
:101F800080B27047C16070478068084000D001206F
:101F9000704702680B6802F4415213434A681A43BF
:101FA0008B681343CA681A430B6913434A698969EA
:101FB0001A4311430160C16921F40061C161704796
:101FC0007CB50546002401A9B02000F057F89DF823
:101FD000040000F0EF01B02000F090FAA901012305
:101FE0000022684600F050FA9DF80000FF2800D05B
:101FF0000124012000EB851103460022684600F011
:1020000043FA9DF80000FF2800D001249DF8041039
:10201000B02000F073FA20467CBD0000F8B5002126
:1020200001258DF80010840100F0BAFA124F2E023B
:1020300031463846FEF765FED82000F045FAC4F375
:10204000074000F041FAC4F3072000F03DFAE0B287
:1020500000F03AFA31463846FEF755FE6946C02090
:1020600000F00CF89DF80010C80702D04807F5D51D
:1020700000252846F8BD0000002002402DE9F0416F
:102080000C4E0C4607464FF4807529463046FEF745
:1020900038FE0F2000F018FA384600F015FAFF203D
:1020A00000F012FA207029463046BDE8F041FEF7F4
:1020B0002ABE00000020024038B504466946C02010
:1020C000FFF7DCFF9DF80000844301D0012038BDFC
:1020D000002038BD70B5FFF7FDFE00F0DDF90021EE
:1020E000A02000F00BFA1121B02000F007FA002424
:1020F0004FF480652046FFF791FF641CA4B2AC4208
:10210000F8D370BD70B50E4E04464FF48075294665
:102110003046FEF7F6FD132000F0D6F9C4F3074071
:1021200000F0D2F9C4F3072000F0CEF9E0B200F0DD
:10213000CBF929463046BDE87040FEF7E4BD00000B
:102140000020024070B5044600F02AFA0D4E4FF40C
:10215000807529463046FEF7D4FD102000F0B4F912
:10216000C4F3074000F0B0F9C4F3072000F0ACF965
:10217000E0B200F0A9F929463046BDE87040FEF70C
:10218000C2BD0000002002402DE9F047DFF8489072
:102190000F4605464FF480781646002441464846CF
:1021A000FEF7AFFD022000F08FF9380A00F08CF93D
:1021B000F8B200F089F904E015F8010B00F084F999
:1021C000641CB442F8D341464846FEF79CFDBDE886
:1021D000F047024800F001BA0020024000540140DC
:1021E0002DE9F047DFF850900F4605464FF4807810
:1021F0001646002441464846FEF783FD032000F0C2
:1022000063F9380A00F060F9F8B200F05DF9FF20D8
:1022100000F05AF905E0FF2000F056F905F8010B2F
:10222000641CB442F7D341464846FEF76CFDBDE856
:10223000F047024800F0D1B90020024000540140AC
:102240002DE9FC5F834600201F468DF804008DF8C1
:1022500000000446D01915460E464FF0010AB0F5AD
:10226000046F02D90020BDE8FC9F4FEA961906F0E2
:102270003F083046FFF746FF0120FFF71DFF00280B
:10228000FAD0A9B23A465846FFF7AAFF01A9C020E2
:10229000FFF7F4FE6946F020FFF7F0FE9DF800001E
:1022A0009DF8041040EA0120B0F5805F18D0A0F539
:1022B0008052103A0ED0B0F5815F20D0A0F5805248
:1022C000303A16D0C1F3011003281ED0022825D0C1
:1022D0005046C8E7032C23D34246494615A019E0CF
:1022E000032C1DD3424649462248FEF76FF80220D0
:1022F000B9E7032C14D3424649461FA00AE0032C39
:102300000ED3424649462CA004E0032C08D3424693
:10231000494639A0FEF75AF80320A4E7032C02D25D
:10232000641CE4B2A5E7424649464348FEF74EF82E
:1023300098E700000D2A2A2A2A2A2A2A2A2A2A2A43
:102340002A352045434320424954532044455445AF
:10235000435445442A2A2A2A2A2A2A2A2A2A2A2A65
:102360002050423A25642C20506167653A25640A62
:1023700000000000782F00080D2A2A2A2A2A2A2A7B
:102380002A2A2A2A2A3720454343204249545320E7
:1023900044455445435445442A2A2A2A2A2A2A2AAB
:1023A0002A2A2A2A2050423A25642C205061676547
:1023B0003A25640A000000000D2A2A2A2A2A2A2A1D
:1023C0002A2A2A2A2A3620454343204249545320A8
:1023D00044455445435445442A2A2A2A2A2A2A2A6B
:1023E0002A2A2A2A2050423A25642C205061676507
:1023F0003A25640A000000000D2A2A2A2A2A2A2ADD
:102400002A2A2A2A2A382045434320424954532065
:1024100044455445435445442A2A2A2A2A2A2A2A2A
:102420002A2A2A2A2050423A25642C2050616765C6
:102430003A25640A00000000342F00082DE9F0411D
:10244000104D4FF4807421462846FEF75AFC9F2019
:1024500000F03AF8FF2000F037F80746FF2000F0C0
:1024600033F80646FF2000F02FF880462146284624
:10247000FEF749FC380440EA062040EA0800BDE8BF
:10248000F081000000200240402B01D9002070475D
:1024900002F50062FFF7D4BE70B50A4D4FF48074A8
:1024A00021462846FEF72DFCFF2000F00DF82146BE
:1024B0002846FEF728FC0120FFF7FEFD0028FAD091
:1024C00070BD00000020024070B50B4C0546022193
:1024D0002046FFF759FD0028F9D029462046FFF78E
:1024E00051FD01212046FFF74FFD0028F9D020467D
:1024F000FFF745FDC0B270BD005401402DE9F04129
:102500000E4D0F4606464FF4807421462846FEF7CE
:10251000F8FB1F20FFF7D8FF3046FFF7D5FF3846FE
:10252000FFF7D2FF21462846FEF7EDFB0120FFF71B
:10253000C3FD0028FAD0BDE8F08100000020024071
:102540002DE9F8438046164600200F468DF800001E
:102550001D4601241A4631464046FFF715FE38460F
:10256000FFF7F0FD6946C020FFF788FD9DF80000E9
:10257000C10702D00007F5D500242B463246394664
:102580000648FFF75DFE2A4641460448FDF74EFE29
:1025900000B100242046BDE8F8830000A418002004
:1025A00070B5084D4FF4807421462846FEF7A9FB0C
:1025B0000620FFF789FF21462846BDE87040FEF758
:1025C000A2BB000000200240402B01D90020704730
:1025D00002F5006292B2FFF7B3BF50F8801F21F0FE
:1025E000010101607047000070B5094B002240F204
:1025F0001F3533F8104033F812608E4203D0521C5E
:1026000092B2AA42F7D323F8101023F8124070BDFB
:10261000743D0020264A10B51168002041F4803135
:1026200011604FF6FF731168401C11F4003F01D197
:102630009842F8D110688003FCD51D4840300168ED
:1026400041F0805101601B49086840F44040086037
:102650001748083003680360036843F400430360CD
:10266000036843F4A0530360041F134B23601368F3
:1026700043F08073136013689B01FCD50A6842F431
:1026800080320A604A68D203FCD50A6842F40032FC
:102690000A604A689203FCD5016821F003010160D9
:1026A000016841F00201016001680907FCD510BD15
:1026B00000380240007000401978400A70B50E489A
:1026C0004FF47A710068B0FBF1F0401EB0F1807FEA
:1026D00011D24FF0E024606165170F212846FDF705
:1026E00019FE0020A061072020612846BDE8704047
:1026F0000021FDF70FBEFEE70800002070B53A4C40
:1027000001004FF00005E0891AD003292BD00429DD
:102710003CD0012954D0022911D1FEF76DF90028CF
:102720000DD1E07A04F1240636F81000FEF7B2FC71
:10273000E17AE08926F81100401EE081257370BD22
:10274000FEF75AF90028FAD1274EE078143636F809
:102750001000FEF79FFCE178E08926F81100401E8A
:10276000E081257170BDFEF747F90028FAD11E4EB1
:10277000E0791C3636F81000FEF78CFCE179E08930
:1027800026F81100401EE081257270BDFEF734F975
:102790000028FAD1144E607A2036E28936F81010FB
:1027A00012A0FDF713FE607A36F81000FEF772FCF7
:1027B000617AE08926F81100401EE081A57270BDA3
:1027C000FEF71AF90028FAD1074E6079183636F864
:1027D0001000FEF75FFC6179E08926F81100401EC9
:1027E000E081A57170BD0000680000204C325020CF
:1027F0005441424C4520424C4F434B204641494CAA
:102800002E205245504C4143494E472046524F4D91
:1028100020256420544F20256400000010B50020BE
:10282000FEF7C8F90120FEF7C5F90220FEF7C2F94C
:102830000020FEF7E3F90120FEF7E0F9BDE81040C3
:102840000220FEF7DBB900002DE9F05F37490026D2
:10285000087A3F280AD3FF2806D0C8790125C0F19D
:102860000100C8710E7204E00E7201E0401C087293
:102870000025DFF8B8A0CF790AF11C0A894691F843
:1028800008804FF4046B3AF81740FF225946284855
:10289000FDF7BAFC4FF4006226492548FDF7A2FC7B
:1028A00023484121C7F1010280F80418422180F831
:1028B0000518542180F80618212180F807183AF8E5
:1028C000121080F80818090A80F8091808EB84111A
:1028D0005B460022FFF734FE07001FD0DFF8588068
:1028E000012108F80410B5B199F807004C46C0F171
:1028F000010055463AF81000FFF790FBE0790D49CA
:10290000C0F1010035F8100031F81020521C21F8F8
:10291000102008F800603846BDE8F09F21460846C0
:1029200000F00CF80320FFF7E9FEF4E76800002050
:10293000E4200020743500207431002070B5064674
:102940000D460846FEF758F8040003D129463046E4
:10295000FDF7BCFE204670BD2DE9FC5FDFF87C82F0
:10296000DFF874929E4A01004FF0010B4FF0000512
:10297000A8F5806A04D001295FD002287DD027E124
:1029800011793F290AD3FF2906D0D1780127C1F157
:102990000101D170157104E0157101E0491C11713C
:1029A00000278F4A8E4B8C48D178009114331479CC
:1029B00033F81160FF224FF40461FDF725FC4FF45A
:1029C000C87288498448FDF70DFC442189F8041831
:1029D000422189F80518542189F80618212189F81F
:1029E000071800994FF40463C1F101027C497A4849
:1029F000143131F8121089F80818090A89F80918F1
:102A000004EB86110022FFF79BFD04000FD00AF8AB
:102A100006B0002FB3D0724E06F11407F078C0F163
:102A2000010037F81000FFF7F9FAF0785DE0314661
:102A30000846FFF783FF002068E091793F290AD319
:102A4000FF2906D051790127C1F10101517195711A
:102A500004E0957101E0491C91710027604A604BC8
:102A60005D48517900911833947933F81160FF2251
:102A70004FF40461FDF7C8FB00E04AE04FF4C86280
:102A800059495548FDF7AEFB522189F804184221F7
:102A900089F80518542189F80618212189F80718A2
:102AA00000994FF40463C1F101024D494A481831BD
:102AB00031F8121089F80818090A89F8091804EB86
:102AC00086110022FFF73CFD04001AD00AF806B078
:102AD000002F7DD0424E06F118077079C0F1010039
:102AE00037F81000FFF79AFA7079C0F1010037F853
:102AF000100038F81020521C28F810200AF8005056
:102B000066E031460846FFF719FF0120FFF7F6FDA2
:102B10005EE0117B3F290AD3FF2906D0D17A012735
:102B2000C1F10101D172157304E0157301E0491C74
:102B3000117300272A4C2A4BFF22E17A243300919B
:102B400033F81160217B01914FF404612248FDF7B5
:102B50005BFBE16AC9F80010218EA9F80410452139
:102B600089F804184E2189F80518562189F80618A5
:102B7000212189F8071800994846C1F1010204F1A2
:102B800024014FF4046331F8121080F80818090A80
:102B900080F809180199002201EB86110E48FFF711
:102BA000CFFC04000ED00AF806B08FB10C4E06F12F
:102BB0002407F07AC0F1010037F81000FFF72EFA71
:102BC000F07A92E731460846FFF7B8FE02209DE70B
:102BD0002046BDE8FC9F0000E42000207435002062
:102BE0006800002024290020B42A00202DE9F05F8D
:102BF0003F490026887A3F280AD3FF2806D0487A22
:102C00000125C0F1010048728E7204E08E7201E06D
:102C1000401C88720025DFF8D8A08946497A0AF15D
:102C2000200A88463AF811404FF4046B99F80A706C
:102C3000FF2259462F48FDF7E7FA4FF4C8622E49A4
:102C40002C48FDF7CFFA2D498022A1F51D60FDF734
:102C5000C9FA28484221C8F1010280F8041853211A
:102C600080F80518542180F80618212180F80718EB
:102C70003AF8121080F80818090A80F809183A463C
:102C800021461FA0FDF7A2FB07EB84115B46002243
:102C90001848FFF755FC070022D0DFF860800121BB
:102CA00008F1800808F80410BDB199F809004C46F5
:102CB000C0F1010055463AF81000FFF7AFF9607A0D
:102CC00008F58062C0F1010035F8100032F81010EC
:102CD000491C22F8101008F800603846BDE8F09F43
:102CE00021460846FFF72AFE0420FFF707FDF4E718
:102CF00068000020E4200020743D0020F430002013
:102D00004C32502050424C4F434B3A2025642050C7
:102D10004147453A2025640A0000000070B51D4A6D
:102D200005460C460020A91A1315954225D00BDC48
:102D300019496A1821D09A421FD0B2F5006F1CD0F1
:102D4000B2F5406F0BD118E0994216D0B1F5184F8B
:102D500002D0B1F51C4F02D10320FEF7E7FCE96871
:102D60000A044FF6F0710AD5400000EB5400B0FBA6
:102D7000F4F00140C0F3420208E00220EDE700EB6E
:102D80005400B0FBF4F0014000F00F021143A960C1
:102D900070BD00000078004000BCFFBFC1F3080117
:102DA000416070471C4A10B5811A1315904225D016
:102DB0000DDC1A49401818D0984219D0B0F5006FB0
:102DC00019D0B0F5406F26D140F614041BE09942AB
:102DD00017D0B1F5184F05D0B1F51C4F1BD140F6F7
:102DE000051410E040F604140DE040F611040AE06A
:102DF00040F6120407E040F6130404E040F61E0417
:102E000001E040F61F042046FEF71EFD2046BDE807
:102E10001040FEF709BD10BD0078004000BCFFBFA8
:102E2000C16841F40051C160704700EB9110006827
:102E300001F01F0201219140084000D0012070479D
:102E4000C26822F004020A43C2607047C26822F0DE
:102E500008020A43C260704701002A00240064008F
:102E600078005601C5010B028D02E5021103E8004E
:102E70000B013801DD0134025A025800B100BA01D9
:102E800001002A0064005601C5010B028D021103E6
:102E9000E80000004C3250204552524F52210000B1
:102EA0000000000000000000000000000000000022
:102EB0000000000000000000000000000000000012
:102EC00000000000000091C881C851C841C892C8E4
:102ED00082C852C842C895C885C855C845C831C8B7
:102EE000496E697469616C696174696F6E205375AC
:102EF0006363657373210A2042616420426C6F63CF
:102F00006B20496E666F3A0A2042616420626C6FE2
:102F1000636B206E756D6265723A202564204C618A
:102F2000737456616C6964426C6F636B3A202564FC
:102F3000200A00000D2A2A2A2A2A2A2A2A2A2A2A8C
:102F40002A4F564552203820454343204249545386
:102F50002044455445435445442A2A2A2A2A2A2AE9
:102F60002A2A2A2A2A2050423A25642C20506167B6
:102F7000653A25640A0000000D2A2A2A2A2A2A2AEC
:102F80002A2A2A2A2A34204F52204C4553532045BE
:102F900043432042495453204445544543544544F7
:102FA0002A2A2A2A2A2A2A2A2A2A2A2A2050423A3D
:102FB00025642C20506167653A25640A00000000F2
:102FC0002A2A2A2A2A2A2A2A2A42616420426C6F43
:102FD000636B2A2A2A2A2A2A2A2A2A2A0A4261646E
:102FE00020626C6F636B2064657465637465643A1A
:102FF000202578204F726967696E616C2050423AD3
:1030000020255820557064617465642050423A2030
:1030100025580A002A2A2A2A2A2A2A2A2A2A2A2A31
:103020002A2A2A57656172204C6576656C696E673D
:103030002A2A2A2A2A2A2A2A2A2A2A2A2A200A70D4
:103040006879626C6F636B202564206572735F63BF
:103050006E74202564206176657261676520256441
:103060002072706C5F626C6B2025640A00000000A7
:103070009030000800000020A4000000EC030008CD
:1030800034310008A400002014470000FC030008AD
:103090000000000000000000001C4E0E04110002A1
:1030A00001000D0E062828000002000000040000A8
:1030B000040C040C050C000C020C010C0010024066
:1030C000001002400014024004000000080000004C
:1030D000000400000000024000080240000402401A
:1030E000010000000020000000400000010000007E
:1030F0000020000000400000000000000000000070
:10310000000000000000FF0300000000FFFFFFFFC1
:10311000FFFFFFFFFFFFFFFFFFFFFFFFFFFFFFFFBF
:1031200000000000FFFFFFFFFFFF000000000000A5
:04313000000000009B
:04000005080001AD41
:00000001FF
