:020000040800F2
:10000000B0370020C1010008130300080F030008E7
:10001000110300080B030008C903000800000000DA
:10002000000000000000000000000000370300088E
:100030000D03000800000000350300083903000824
:10004000DB010008DB010008DB010008DB01000820
:10005000DB010008DB010008DB010008DB01000810
:10006000DB010008DB010008DB010008DB01000800
:10007000DB010008DB010008DB010008DB010008F0
:10008000DB010008DB010008DB010008DB010008E0
:10009000DB010008DB010008DB010008DB010008D0
:1000A000DB010008DB010008DB010008DB010008C0
:1000B000DB010008DB010008DB010008DB010008B0
:1000C000DB010008DB010008DB010008DB010008A0
:1000D000DB010008DB010008DB010008DB01000890
:1000E000DB010008DB010008DB010008DB01000880
:1000F000DB010008DB010008DB010008DB01000870
:10010000DB010008DB010008DB010008DB0100085F
:10011000DB010008DB010008DB010008DB0100084F
:10012000DB010008DB010008DB010008DB0100083F
:10013000DB010008DB010008DB010008DB0100082F
:10014000DB010008DB010008DB010008DB0100081F
:10015000DB010008DB010008DB010008DB0100080F
:10016000DB010008DB010008DB010008DB010008FF
:10017000DB010008DB010008DB01000800000000D3
:10018000DB010008DB010008DB010008DB010008DF
:10019000DB010008DB010008DB01000800000000B3
:1001A000DB010008DB010008DB010008DFF80CD0F0
:1001B00000F07AF800480047910E0008B0370020A0
:1001C0000648804706480047FEE7FEE7FEE7FEE7F1
:1001D000FEE7FEE7FEE7FEE7FEE7FEE73D03000879
:1001E000AD01000840EA01039B0703D009E008C9FC
:1001F000121F08C0042AFAD203E011F8013B00F8EC
:10020000013B521EF9D27047D2B201E000F8012B37
:10021000491EFBD270470022F6E710B513460A4686
:1002200004461946FFF7F0FF204610BD30B50446DE
:100230000020034600E05B1C934203D2E05CCD5CEF
:10024000401BF8D030BD2DE9F05F054600209246F6
:100250009B4688460646814640241BE02846414688
:100260004746224600F041F853465A46C01A91418B
:1002700010D311461846224600F028F82D1A67EBD5
:1002800001084F4622460120002100F01FF817EB1D
:1002900000094E41201EA4F10104DFDC484631462E
:1002A0002A464346BDE8F09F064C074D06E0E0684D
:1002B00040F0010394E8070098471034AC42F6D3AD
:1002C000FFF778FFBC280008DC280008202A04DBA0
:1002D000203A00FA02F1002070479140C2F1200359
:1002E00020FA03F3194390407047202A04DB203A98
:1002F00021FA02F00021704721FA02F3D040C2F146
:1003000020029140084319467047FEE7FEE7FEE7EA
:10031000FEE7FEE70907090E002806DA00F00F00E5
:1003200000F1E02080F8141D704700F1E02080F813
:1003300000147047FEE7FEE700F032BB1E4818B419
:10034000016841F4700101601C48016841F001013D
:10035000016001688907FCD5184A0832116841F02C
:1003600080011160002300930099491C00915029DD
:10037000FAD3116841F09001116000930099491C73
:1003800000915029FAD3116821F00301116001682E
:100390000B4C21400160016821F480210160136051
:1003A000106806490748091D086004480C300360BE
:1003B00018BC01F09DBD000088ED00E0003802404F
:1003C000FFFFF6FE10300024FEE700000FB4054BDF
:1003D00010B503A9044A029800F018F810BC5DF8A3
:1003E00014FB0000690A00089C00002002E008C815
:1003F000121F08C1002AFAD170477047002001E09F
:1004000001C1121F002AFBD1704700002DE9FF4FE8
:100410008DB09B460F460446002606E025280BD0EB
:100420005A460F999047641C761C20780028F5D115
:1004300011B03046BDE8F08F0025A846012298494A
:1004400000E0054314F8013F203B02FA03F00842A4
:10045000F7D120782E2817D114F8010F45F00405A4
:100460002A280ED06FF02F022078A0F13001092940
:100470000AD808EB880102EB410100EB0108641C7B
:10048000F2E757F8048B641C20786C280DD004DC4C
:100490004C2812D06A2811D104E074280DD07A2893
:1004A0000CD10AE045F4001507E0617845F48015A9
:1004B000814202D1641C05F58015641C2278692AEA
:1004C00045D008DC002AB3D0582A69D0632A10D05E
:1004D000642A08D13BE0702A67D0732A13D0752AAA
:1004E0005CD0782A5CD010465A460F999047761C0B
:1004F000D3E017F8040B8DF8000000208DF8010000
:10050000E946012003E057F8049B4FF0FF306907EC
:100510004FF0000501D40AE06D1C45450DDA854217
:10052000FADB19F805100029F6D106E06D1C8542AA
:10053000FCDB19F805100029F8D12E4404E019F865
:10054000010B5A460F9990476D1EF8D2A5E00A207C
:100550000021CDE90801C5F3025002280DD001CFDA
:10056000C117031E71F100030DDA4FF0000CD0EB40
:100570000C006CEB01012D2308E0FF1D27F007079D
:10058000F7E80201EDE72B0504D52B238DF8283081
:1005900001233BE0EB0739D02023F7E70A2000E0F6
:1005A00010200021CDE9080107E01020002145F0CE
:1005B0000405CDE908014FF00808C5F302500228F0
:1005C0000FD001CF00214FF0000A2B071FD5702A52
:1005D0000DD0DDE908C38CF0100C5CEA030C0CD0E4
:1005E00015E0FF1D27F00707F7E80201EBE74022BF
:1005F0008DF828204FF0010A0BE050EA010306D0E5
:1006000030238DF828308DF8292002239A46582A65
:1006100004D024A20DF120090B9209E026A2F9E7EB
:10062000DDE90823FFF70FFE0B9B9B5C09F8013DFA
:1006300050EA0102F4D1ADEB0900203008906807C0
:1006400001D44FF001080899884502DDA8EB0100AC
:1006500000E000208046002506E00AA85A46405DDA
:100660000F9990476D1C761C5545F6DB04E0302051
:100670005A460F999047761CB8F10001A8F101087D
:10068000F5DC05E019F8010B5A460F999047761CE6
:100690000899481E08900029F4DC641CC5E6000097
:1006A0000928010030313233343536373839616248
:1006B000636465660000000030313233343536370C
:1006C00038394142434445460000000010B54FF41C
:1006D00048740C4BA04205D20B4AD98922F810105D
:1006E000491ED981DA89A24200D8FEE7198A491C3D
:1006F00089B21982054B198003EB41015A80488069
:1007000010BD000068000020B01A00202019002051
:100710002DE9F05F764E4FF0000A40F2FF34A6F864
:1007200010A0C8217348FFF776FD4FF4487529469D
:100730007148FFF770FD4FF400617048FFF76BFDE3
:10074000611C6F48FFF767FD6E49002021F810001B
:10075000401C80B2A842F9D3DFF89491002509F13A
:100760001209DFF8908140F2B6370CE0204601F024
:1007700089F9A0B1308A401C80B2308208EB400079
:100780004480641EA4B2BC42F0D86D1CEDB2022DB0
:10079000F9D3FF2086F803A03071002517E029F86F
:1007A000154074732246294657A0FFF70FFE641EBA
:1007B000A4B2EAE7204601F065F9C8B1308A401CCE
:1007C00080B2308208EB40004480641EA4B2BC4278
:1007D000F0D86D1CEDB2022DF9D3D34686F807A0F0
:1007E0004FF0FF0A86F808A0B146002546461BE0F8
:1007F0003F4829461A3020F8154039F8152042A004
:10080000FFF7E4FD641EA4B2E3E7204601F03AF9E5
:10081000C0B1B9F81000401C80B2A9F8100006EB76
:1008200040004480641EA4B2BC42EED86D1CEDB200
:10083000022DF9D3C84689F809B0D14688F80AA034
:10084000002515E02A481E3020F81540641EA4B289
:10085000ECE7204601F016F9B0B1B8F81000401CE2
:1008600080B2A8F8100006EB40004480641EA4B2D9
:10087000BC42EED86D1CEDB2022DF9D388F805B05C
:1008800088F8069000251AE01948224616302946B5
:1008900020F8154021A0FFF799FD641EA4B2E9E7F6
:1008A000204601F0EFF8B0B1B8F81000401C80B25B
:1008B000A8F8100006EB40004480641EA4B2BC42BD
:1008C000EED86D1CEDB2022DF9D388F80BB088F884
:1008D0000C90BDE8F09F064822462230294620F8B9
:1008E000154013A0FFF772FD641EA4B2E9E70000F3
:1008F0006800002020190020B01A0020702100207C
:10090000B02F0020702900200D4442545F426C6FCC
:10091000636B5B25785D3D25780A00000D524254DB
:100920005F426C6F636B5B25785D3D25780A000044
:100930000D454E565F426C6F636B5B25785D3D25C0
:10094000780A000010B500231A4604E030F812407F
:10095000521C234492B28A42F8D3B3FBF1F080B226
:1009600010BD000030B5094B054600201C8801462B
:1009700008E003EB41029288AA4201D1012030BD78
:10098000491C89B2A142F4D330BD000020190020D7
:100990000249086008680028FCD170470400002064
:1009A00003480168002902D00168491E01607047B0
:1009B0000400002070B5022000F0E6F910A0FFF757
:1009C00005FD1D4D2888002819D1688800F0D6FA49
:1009D0000024A9886888224600F0B6FA641CE4B2B4
:1009E000402CF6D315A0FFF7F1FCFF202880022051
:1009F00001F012FCA888BDE8704000F0BFBA70BDDD
:100A00002A2A2A2A2A2A2A2A2A2A2A556E65787008
:100A1000656374656420506F776572204C6F7373E3
:100A200020436865636B696E672A2A2A2A2A2A2A64
:100A30002A2A2A2A2A0A000094000020556E657886
:100A400070656374656420506F776572204C6F73B6
:100A5000732C2044617461205265636F76657269FE
:100A60006E672E2E2E0A000070B5074D0446C1B2E7
:100A7000284601F0B5FD0721284601F0F8FD0028C1
:100A8000F9D0204670BD0000001001402DE9F04172
:100A900006464FF4406000F079FC1F48008800F0E3
:100AA00075FC1D4C1D4F0C3407213846226800F0A0
:100AB000B9F8251D072138462A6800F0B3F801224D
:100AC00002213846236800F0DCF802220021384673
:100AD000236800F0FAF80122022138462B6800F062
:100AE000D0F80222002138462B6800F0EEF830469C
:100AF00001F07AFD4FF4E131304601F031FD04217F
:100B0000304601F0BFFD0821304601F0C1FD3046FE
:100B1000BDE8F04101F0A6BD0C000020000002403D
:100B200070B504460F4830F8140000F02FFC0D4D4E
:100B300000221835A5F10C0655F8243056F824008B
:100B4000012100F09EF855F8243056F824000222C6
:100B5000002100F0BAF856F8241055F824008862F5
:100B600070BD0000200000200449044A0C3A51F8EE
:100B7000201052F8200081627047000038000020E9
:100B80002DE9F0438BB00020069007900890099063
:100B90004FF6FF7618221F496846FFF723FB002413
:100BA0001D4FDFF878902BE02046FFF7DBFE012891
:100BB00024D000231946EC4600200CEBC10252F869
:100BC0002080B8F80080A04518D0401C80B20428CE
:100BD000F5D39BB9491C89B20529EDD31CB137F86F
:100BE000140020B106E03D8826466DB106E00C49B0
:100BF000095D69B1A84201D226460546641CA4B22B
:100C0000B9F80E008442CFD30BB03046BDE8F08374
:100C10002646F9E7C8260008702100206800002059
:100C2000B02F0020F0B5046A456A00234FF0010C94
:100C30004FF00F0E0CFA03F6164206D09E000EFA85
:100C400006F7BC4301FA06F73C435B1C9BB2082B3A
:100C5000F0D308230CFA03F6164207D09E00203E7C
:100C60000EFA06F7BD4301FA06F73D435B1C9BB243
:100C7000102BEFD304624562F0BD81627047816141
:100C800070472DE9F0470568C66800244FF0010A57
:100C90004FF003090AFA04F71F420ED0670009FA61
:100CA00007FC25EA0C0526EA0C0601FA07F802FA09
:100CB00007FC48EA05054CEA0606641CA4B2102CA1
:100CC000E8D30560C660BDE8F087F0B5012941684A
:100CD00018D099434160846800210126032706FA51
:100CE00001F51D4208D04D0007FA05FC24EA0C046A
:100CF00002FA05FC4CEA0404491C89B21029EED31F
:100D00008460F0BD1943E5E72DE9F0411C4D1D4E0F
:100D100040F2B5300024E8814FF4487706F5C878F2
:100D200002E0E889B8420AD3204600F0ABFE012871
:100D30001CD028F81440641CA4B2BC42F1D3288A09
:100D40003080E88970800E48FF212C30018000211E
:100D500041808180BDE8F081288A401C81B22982CF
:100D600006EB4101E8894880401EE881E88900F0EF
:100D700089FE0128F0D02046FFF7A8FCDBE7000041
:100D8000680000202019002010B5204C4FF40063AB
:100D9000A8B1012825D0022810D1E17A04F122005F
:100DA000002230F81100217B01EB8011184800F07F
:100DB000A1FF17480168E1628088208610BD1348B2
:100DC000E1781230002230F81100217901EB801116
:100DD0000F4800F08FFF0E494FF4C87201F5046010
:100DE00010E00A4861791630002230F81100A1792C
:100DF00001EB8011064800F07DFF05494FF4C86201
:100E000001F51D60BDE81040FFF7ECB96800002057
:100E1000E010002070B519494FF40063A1F11E00E5
:100E2000427A807A31F81210002200EB81111448C6
:100E300000F060FF4FF4C86211491248FFF7D2F981
:100E40001149802201F51D60FFF7CCF90F4D0020FC
:100E500005F56C644FF480630126C20800F00701B9
:100E6000AA5C06FA01F10A4201D0012100E000214A
:100E70002154401C80B29842EFD370BD8600002000
:100E8000E01000207029002020170020F020002012
:100E900070B501F081F80A20FFF77AFD01F02EF914
:100EA000184C2046FFF7F2FD01F076F80A20FFF714
:100EB0006FFD01F023F92046FFF7E8FD12A0FFF7D0
:100EC00085FA00F0BBF8164D16486A882988FFF7A6
:100ED0007DFA002406E005EB4400818812A0FFF7AC
:100EE00075FA641C2888A042F5DC00F035FF0F4934
:100EF000086001460EA0FFF769FA01F06DF80020C6
:100F000070BD000000100140496E697469616C6930
:100F10007A696E672E2E2E2E2E2E2E2E2E2E0A0043
:100F200020190020BC2700082564200000000020B4
:100F30000A0D54686520466C6173685F49443A3015
:100F40007825580A0D0A0D0070B51446054602EBC7
:100F500081114FF4046633460022074800F0CAFEB0
:100F6000002808D004EB85113346BDE8704000220C
:100F7000014800F073BF70BDE01000202DE9F0477C
:100F8000074629484FF4487A804630F81750A0F5B4
:100F90006C69574502D30020BDE8F0872846FFF76B
:100FA000E1FC01280AD02C46204600F099FD0600FD
:100FB0000FD000271D4D012E19D026E039F815401D
:100FC0002A46234639461A48FFF700FA28F8154002
:100FD000EAE7204601F014F92146384600F006FA07
:100FE000002001F019F9012001F016F9D1E71148AC
:100FF00030F81410491C20F814102878401C287070
:101000000D480755A878401CA87028780A2802D9EE
:1010100001F08AF82F70A8780A2802D901F02AFA7C
:10102000AF703046B8E7000070290020680000204B
:101030001028000870210020B02F002070B500F0AB
:10104000ABFD00F089FE0D490D4C83B20022886291
:1010500034F812509D4209D101460AA0FFF7B6F9B3
:1010600000F0EEF9BDE87040FFF7A4BC521C0C2A5A
:10107000EEDB01460BA0FFF7A9F9FEE768000020B0
:101080009C260008537570706F72746564204E4121
:101090004E4420466C6173682049442030782558BE
:1010A0000A0000004572726F723A20556E737570B7
:1010B000706F72746564204E414E4420466C6173BB
:1010C0006820494420307825580A00002DE9FF4F58
:1010D000DFF890A10E4600243AF8167081B09046D1
:1010E000B1F5487F06D2B8F1400F03D20498B0F5AD
:1010F000006F03D9002005B0BDE8F08F3846FFF738
:1011000031FC01282ED03D464FF480615648FFF750
:1011100019FC81465448DFF854B130F81510A1EBA2
:101120000900012833DD4FF480614F48FFF70AFCC6
:10113000FFF726FD2AF81600074600904A484B465E
:10114000294630F815204A48FFF740F950464FF439
:10115000C86130F81420BA4210D1B4420ED02AF837
:1011600014500FE043483A46314630F81750424891
:101170002B46FFF72BF92AF81650C5E7641CA4B2DA
:101180008C42E6D39BF80100401C8BF801004FF421
:1011900000643AF816705A2221463848FFF734F8AE
:1011A0003648049A0199FFF71DF808EB871123468A
:1011B0000022324800F052FE04004FF001091BD01B
:1011C0002F4901F807909BF80210491C8BF8021078
:1011D000DFF8ACC04FF48067ACF56C6200204D4680
:1011E0001CF80060C108002E00F00703565C05FAE9
:1011F00003F31CD01E431BE0384601F001F83946CA
:10120000304600F0F3F8002001F006F8012001F06C
:1012100003F80025174E07E036F817002A4639462E
:10122000FFF792FE6D1CEDB24545F5D3D0E79E4326
:10123000401C80B25654B842D2D39BF8000000261E
:101240005D460A2805D900F06FFF0EA0FFF7BEF833
:101250002E70A8780A2802D901F00CF9AE70204649
:1012600049E700007029002070210020680000205C
:1012700064280008B01A002010280008E0100020A0
:10128000B02F00202A2A2A2A2A2A2A2A2A2A2A2A67
:101290002A2A2A41425420544F204E414E442A2AA1
:1012A0002A2A2A2A2A2A2A2A2A2A2A200A00000046
:1012B000F0B52FA188B03AC98DE83A002DA1304C85
:1012C000D1E90031CDE904312AA10246D1E900314A
:1012D000CDE90631216800202A4BC1F3810129B1F3
:1012E000DFF8A4C0012903D0022903D019461AE06F
:1012F000614618E02249091F0D6805F03F070D6897
:10130000C5F388160D680968C5F301456D1C6D00AD
:1013100001F48001B1F5800F00D16346B3FBF7F112
:101320007143B1FBF5F123682568C3F303131DF87E
:10133000033021FA03F3C5F3822504AE2468755DFA
:1013400023FA05F5C4F3423406AE345D23FA04F4FF
:1013500042B1012A08D0022A08D0032A00D120462F
:1013600008B0F0BD0846FBE71846F9E72846F7E75E
:101370000000000000000000010203040607080945
:10138000083802400024F40040787D01064901EB52
:101390009011D1F8002800F01F030120984002436B
:1013A000C1F800287047000000300240064901EBF8
:1013B0009011D1F8002800F01F03012098408243CB
:1013C000C1F800287047000000300240064901EBD8
:1013D0009011D1F8002800F01F030120984002432B
:1013E000C1F80028704700000030024010B54FF4EB
:1013F000487398420AD2994208D340F2B5329142DA
:1014000004D80C4C34F810208A4201D0002010BDC2
:10141000884201D1012010BD074AD18924F810105B
:10142000491E88B2D081984200D8FEE7034948801F
:10143000F0E70000B01A002068000020201900200A
:101440002DE9F04F002587B040F2FF340695AB46FA
:101450000595012640F2B63A0495002000EB841170
:1014600006230422684600F09DFC9DF800004428F5
:101470000BD19DF80100422807D19DF802005428A5
:1014800003D19DF80300212804D0641EA4B2544562
:10149000E3D2EDB33F2505EB841106230422684611
:1014A00000F080FC9DF8000044280BD19DF801005D
:1014B000422807D19DF80200542803D19DF803006B
:1014C000212803D06D1EADB2402DE4D3DFF8249463
:1014D0000026062389F803609DF804009DF8051096
:1014E000042200EB012087B2B90102A800F05AFCE7
:1014F0004FF001083F2D17D19DF80800442813D163
:101500009DF8090042280FD19DF80A00542800E0F8
:101510001CE009D19DF80B00212805D1002589F890
:101520000380204600F0DCFAF24812300480478045
:101530004F4689F804500020FFF726FCEE4840F2A1
:10154000FF35018839824088F88114E0FFF7E0F820
:10155000FFF7DAFB00F0E8FD00F08CFF002000F060
:101560005BFE012000F058FE022000F055FE3046E0
:1015700007B0BDE8F08F002000EB851106230422A0
:10158000684600F00FFC9DF8000052280BD19DF832
:101590000100422807D19DF80200542803D19DF88C
:1015A0000300212806D06D1EADB25545E3D2BBF134
:1015B000000F49D03F2404EB85110623042268461E
:1015C00000F0F0FB9DF8000052280BD19DF80100BF
:1015D000422807D19DF80200542803D19DF803004A
:1015E000212803D0641EA4B2402CE4D37E719DF860
:1015F00004009DF80510062300EB01201FFA80F976
:101600004FEA8911042202A800F0CCFB3F2C12D132
:101610009DF8080052280ED19DF8090042280AD1F1
:101620009DF80A00542806D19DF80B00212802D10C
:10163000002487F80580AF4816300580A0F8029096
:10164000BC710120FFF7A0FB40F2FF3B5C4600208D
:1016500000EB841106230422684600F0A3FB9DF8EA
:10166000000041280BD19DF80100422807D19DF8C8
:101670000200542803D19DF80300212805D0641EE0
:10168000A4B25445E3D20698F0B33F2505EB84118C
:1016900006230422684600F085FB9DF800004128DF
:1016A0000BD19DF80100422807D19DF80200542873
:1016B00003D19DF80300212803D06D1EADB2402D4B
:1016C000E4D3FE719DF804009DF80510062300EB9D
:1016D00001201FFA80F94FEA8911042202A800F0C4
:1016E00061FB3F2D14D19DF80800412810D19DF8D1
:1016F000090042280CD19DF80A00542808D19DF811
:101700000B00212804D100E01AE0002587F80780AB
:101710007849E8B21A310C80A1F802903872FA794F
:101720004FF40064234631F81210002200EB8111BF
:10173000724800F0DFFA224670497148FEF752FD08
:101740005D46002000EB851106230422684600F068
:1017500029FB9DF8000042280BD19DF80100532879
:1017600007D19DF80200542803D19DF803002128D9
:1017700005D06D1EADB25545E3D20598F0B33F24B8
:1017800004EB851106230422684600F00BFB9DF84C
:10179000000042280BD19DF80100532807D19DF885
:1017A0000200542803D19DF80300212803D0641EB1
:1017B000A4B2402CE4D37E729DF804009DF805107D
:1017C000062300EB01201FFA80F94FEA8911042259
:1017D00002A800F0E7FA3F2C14D19DF80800422837
:1017E00010D19DF8090053280CD19DF80A00542807
:1017F00008D19DF80B00212804D100E00AE0002464
:1018000087F809803B481E300580A0F80290BC7222
:10181000FFF700FB5D465446002000EB85110623D0
:101820000422684600F0BEFA9DF8000045280BD15E
:101830009DF801004E2807D19DF80200562803D1DB
:101840009DF80300212805D06D1EADB2A542E3D25C
:101850000498E8B33F2404EB85110623042268466C
:1018600000F0A0FA9DF8000045280BD19DF801007A
:101870004E2807D19DF80200562803D19DF8030099
:10188000212803D0641EA4B2402CE4D3FE729DF83C
:1018900004009DF80510062300EB012086B2B1017B
:1018A000042202A800F07EFA3F2C14D19DF8080013
:1018B000452810D19DF809004E280CD19DF80A004A
:1018C000562808D19DF80B00212804D1002400E0FF
:1018D0000AE087F80B8007482230058046803C7379
:1018E0000220FFF751FA02E0022000F095FC0020F0
:1018F0003EE600006800002020190020E0100020D3
:10190000702100202DE9F04186B000244FF6FF77CA
:1019100014221D496846FEF765FCDFF870802BE055
:10192000002635462046FFF71DF818BB00216B4600
:10193000002053F8212032F810C0A4451AD0401CD2
:1019400080B20428F7D3ADB9491C89B21429EFD36A
:101950000F4900204FF4487231F81030A34209D0EB
:10196000401C80B29042F7D326B90A48005D012896
:1019700000D02746641CA4B2B8F80E008442CFD32E
:1019800006B03846BDE8F081B426000868000020A3
:1019900070290020B02F002030B587B040F60640F7
:1019A000FFF7F4FC40F60840FFF7F0FC41F2151099
:1019B000FFF7ECFC1D4D4FF4F84422460521284664
:1019C000FFF730F92346002202212846FFF759F994
:1019D0002346012200212846FFF777F9AC15144D64
:1019E0002346002201212846FFF74BF92346022215
:1019F00000212846FFF769F921462846FFF73FF9FD
:101A00000020211DCDE900106100CDE90201202157
:101A1000CDE90501074C04906946204600F01BF80B
:101A2000204600F009F807B030BD00000018024061
:101A30000020024000540140016841F04001016073
:101A40007047C06880B27047C160704780680840C6
:101A500000D00120704702680B6802F44152134322
:101A60004A681A438B681343CA681A430B691343C5
:101A70004A6989691A4311430160C16921F400610F
:101A8000C16170477CB50546002401A9B02000F073
:101A900057F89DF8040000F0EF01B02000F0BCF909
:101AA000A90101230022684600F07CF99DF800009E
:101AB000FF2800D00124012000EB851103460022FD
:101AC000684600F06FF99DF80000FF2800D001245F
:101AD0009DF80410B02000F09FF920467CBD000066
:101AE000F8B5002101258DF80010840100F0E6F919
:101AF000124F2E0231463846FFF7BFF8D82000F0CB
:101B000071F9C4F3074000F06DF9C4F3072000F049
:101B100069F9E0B200F066F931463846FFF7AFF8F0
:101B20006946C02000F00CF89DF80010480701D568
:101B3000002501E0C807F3D12846F8BD0020024087
:101B40002DE9F0410C4E0C4607464FF480752946AE
:101B50003046FFF792F80F2000F044F9384600F0C5
:101B600041F9FF2000F03EF9207029463046BDE8DB
:101B7000F041FFF784B800000020024038B5044669
:101B80006946C020FFF7DCFF9DF80000844301D0C8
:101B9000012038BD002038BD10B5FFF7FDFE00F074
:101BA00009F90021A02000F037F91121BDE810400B
:101BB000B02000F031B9000070B50E4E04464FF46D
:101BC000807529463046FFF758F8132000F00AF9CF
:101BD000C4F3074000F006F9C4F3072000F002F94F
:101BE000E0B200F0FFF829463046BDE87040FFF74C
:101BF00046B800000020024070B5044600F05EF9CF
:101C00000D4E4FF4807529463046FFF736F8102008
:101C100000F0E8F8C4F3074000F0E4F8C4F307204C
:101C200000F0E0F8E0B200F0DDF829463046BDE80B
:101C30007040FFF724B80000002002402DE9F04773
:101C4000DFF848900F4605464FF48078164600248A
:101C500041464846FFF711F8022000F0C3F8380A61
:101C600000F0C0F8F8B200F0BDF804E015F8010B80
:101C700000F0B8F8641CB442F8D341464846FEF779
:101C8000FEFFBDE8F047024800F02CB900200240FA
:101C9000005401402DE9F047DFF850900F4605460B
:101CA0004FF480781646002441464846FEF7E5FF8B
:101CB000032000F097F8380A00F094F8F8B200F02A
:101CC00091F8FF2000F08EF805E0FF2000F08AF880
:101CD00005F8010B641CB442F7D341464846FEF7B1
:101CE000CEFFBDE8F047024800F0FCB800200240FB
:101CF000005401402DE9F843814600201F468DF82D
:101D0000000004460126D01915468846B0F5046F38
:101D100002D90020BDE8F8834046FFF74DFF0120BF
:101D2000FFF72CFF0028FAD0A9B23A464846FFF741
:101D3000B1FF6946C020FFF703FF9DF80000C0F324
:101D40000110022805D1032C02D2641CE4B2E3E79F
:101D500000263046DEE700002DE9F041104D4FF43B
:101D6000807421462846FEF788FF9F2000F03AF84D
:101D7000FF2000F037F80746FF2000F033F8064652
:101D8000FF2000F02FF8804621462846FEF777FF17
:101D9000380440EA062040EA0800BDE8F08100006F
:101DA00000200240402B01D90020704702F500625C
:101DB000FFF7A0BF70B50A4D4FF480742146284646
:101DC000FEF75BFFFF2000F00DF821462846FEF7E6
:101DD00056FF0120FFF7D2FE0028FAD070BD0000A8
:101DE0000020024070B50B4C054602212046FFF74B
:101DF0002DFE0028F9D029462046FFF725FE0121B7
:101E00002046FFF723FE0028F9D02046FFF719FEF1
:101E1000C0B270BD005401402DE9F0410E4D0F4697
:101E200006464FF4807421462846FEF726FF1F2001
:101E3000FFF7D8FF3046FFF7D5FF3846FFF7D2FF50
:101E400021462846FEF71BFF0120FFF797FE0028DA
:101E5000FAD0BDE8F0810000002002402DE9F843EF
:101E60008046164600200F468DF800001D460124CE
:101E70001A4631464046FFF7E1FE3846FFF7BCFE02
:101E80006946C020FFF75CFE9DF80000010701D500
:101E9000002401E0C007F3D12B46324639460648FC
:101EA000FFF728FF2A4641460348FEF7BFF900B175
:101EB00000242046BDE8F883A008002070B5084D36
:101EC0004FF4807421462846FEF7D7FE0620FFF720
:101ED00089FF21462846BDE87040FEF7D0BE0000CD
:101EE0000020024050F8801F21F00101016070477E
:101EF000264A10B51168002041F4803111604FF678
:101F0000FF731168401C11F4003F01D19842F8D1D1
:101F100010688003FCD51D484030016841F08051B5
:101F200001601B49086840F44040086017480830C9
:101F300003680360036843F400430360036843F4E9
:101F4000A0530360041F134B2360136843F0807396
:101F5000136013689B01FCD50A6842F480320A6062
:101F60004A68D203FCD50A6842F400320A604A6823
:101F70009203FCD5016821F003010160016841F082
:101F80000201016001680907FCD510BD003802405C
:101F9000007000401978400A70B50E484FF47A710D
:101FA0000068B0FBF1F0401EB0F1807F11D24FF01D
:101FB000E024606165170F212846FEF7ABF9002089
:101FC000A061072020612846BDE870400021FEF78F
:101FD000A1B9FEE7080000202DE9F05F404A4FF468
:101FE000A57700204FF4006300F132011154401C2A
:101FF00080B29842F8D300253A4C3B4EDFF8EC8093
:10200000AB464FF0FF0A9946A4F800B06780FFF78F
:1020100079FCA080022000F0FFF83846FEF7AEFF02
:1020200036F817203946324838F81230FEF7CEF924
:102030004B46002239462A48FFF748F8A4F800A08A
:10204000A4F802A0A4F804A0022000F0E5F86D1C9A
:10205000ADB2B5F5967FD7D34FF4B6750024474699
:10206000C8464B46002229461D48FFF72FF836F890
:10207000152029461F4837F81230FEF7A7F92846E1
:10208000FEF77CFF36F8152029461B4837F812303A
:10209000FEF79CF9641CA4B2642CE1D340F2531502
:1020A00000244346002229460D48FFF70FF836F872
:1020B000152029460F4837F81230FEF787F92846D1
:1020C000FEF75CFF36F8152029460B4837F812302A
:1020D000FEF77CF9641CA4B2642CE2D3BDE8F09F47
:1020E000A000002094000020702900207021002012
:1020F0002C27000874270008E026000810B50020EF
:10210000FEF70EFD0120FEF70BFD0220FEF708FD95
:102110000020FEF729FD0120FEF726FDBDE8104056
:102120000220FEF721BD00002DE9F05F30490026B6
:10213000087A3F280AD3FF2806D0C8790124C0F1C5
:102140000100C8710E7204E00E7201E0401C0872BA
:102150000024DFF89CA0CF790AF11A0A894691F889
:1021600008804FF4046B3AF81750FF225946214873
:10217000FEF74AF84FF400621F491E48FEF732F896
:102180001C484121C7F1010280F80418422180F85F
:102190000518542180F80618212180F807183AF80C
:1021A000121080F80818090A80F8091808EB851140
:1021B0005B460022FFF752FE070017D0DFF83C8095
:1021C000012108F8051084B199F807004C46C0F1C8
:1021D000010055463AF81000FFF782FCE079C0F1A3
:1021E000010035F8101008F801603846BDE8F09F8E
:1021F00068000020E010002070210020B02F002097
:1022000070B50546FEF7AEFB040002D12846FEF786
:102210005DFA204670BD00002DE9FC5FDFF84082CA
:10222000904ADFF8449201004FF0010A4FF0210B71
:102230004FF0000504D0012958D002287DD00BE1D1
:1022400011793F290AD3FF2906D0D1780126C1F19F
:102250000101D170157104E0157101E0491C117183
:10226000002680497F4BFF22CC781233097933F85E
:10227000147000914FF404617948FDF7C5FF4FF4E5
:10228000C8727A497648FDF7ADFF442188F80418F2
:10229000422188F80518542188F806187149C4F1BC
:1022A0000102123188F807B831F8121088F80818BE
:1022B000090A88F8091800994FF4046301EB8711A3
:1022C00000226748FFF7CAFD040078D009F807A08C
:1022D000002E67D0634E06F11207F078C0F10100BE
:1022E00037F81000FFF7FCFBF07855E091793F29B3
:1022F0000AD3FF2906D051790126C1F1010151719C
:10230000957104E0957101E0491C917100265549D1
:10231000544BFF224C791633897933F814700091AD
:102320004FF404614E48FDF76FFF4FF4C862504907
:102330004B48FDF757FF522100E034E088F80418BD
:10234000422188F80518542188F806184549C4F137
:102350000102163188F807B831F8121088F8081809
:10236000090A88F8091800994FF4046301EB8711F2
:1023700000223B48FFF772FD04006ED009F807A069
:1023800086B1384E06F116077079C0F1010037F8B2
:102390001000FFF7A5FB7079C0F1010037F81010AD
:1023A00009F8015058E0117B3F290BD3FF2907D0D2
:1023B000D17A0126C1F10101D172157305E04CE01B
:1023C000157301E0491C11730026264C254BFF2292
:1023D000E17A2233019133F81170217B00914FF49F
:1023E00004611F48FDF710FFE16AC8F80010218E54
:1023F000A8F80410452188F804184E2188F805181B
:10240000562188F8061888F807B801994046C1F1A6
:10241000010204F122014FF4046331F8121088F82C
:102420000818090A80F809180099002201EB8711A1
:102430000B48FFF713FD04000FD009F807A05EB1A9
:10244000084E06F12207F07AC0F1010037F81000BB
:10245000FFF746FBF07A9FE72046BDE8FC9F0000AF
:10246000E010002068000020B02F0020201900207C
:10247000B01A00202DE9F05F34490026887A3F2801
:102480000AD3FF2806D0487A0124C0F1010048721F
:102490008E7204E08E7201E0401C88720024DFF826
:1024A000ACA04F7A0AF11E0A894691F80A804FF4CF
:1024B000046B3AF81750FF2259462548FDF7A4FE51
:1024C0004FF4C86223492248FDF78CFE224980223E
:1024D000A1F51D60FDF786FE1D484221C7F10102EE
:1024E00080F80418532180F80518542180F8061844
:1024F000212180F807183AF8121080F80818090A04
:1025000080F8091808EB85115B460022FFF7A6FC4E
:10251000070018D0DFF84480012108F805108CB1BD
:1025200099F80700AAF10405C0F101004C4635F8FE
:102530001000FFF7D5FAE079C0F1010035F810106E
:1025400008F801603846BDE8F09F000068000020F0
:10255000E010002070290020F0200020B02F002083
:1025600070B51D4A05460C460020A91A1315954260
:1025700025D00BDC19496A1821D09A421FD0B2F538
:10258000006F1CD0B2F5406F0BD118E0994216D005
:10259000B1F5184F02D0B1F51C4F02D10320FEF760
:1025A00087FEE9680A044FF6F0710AD5400000EB97
:1025B0005400B0FBF4F00140C0F3420208E00220F6
:1025C000EDE700EB5400B0FBF4F0014000F00F0227
:1025D0001143A96070BD00000078004000BCFFBF3F
:1025E000C1F30801416070471C4A10B5811A1315E8
:1025F000904225D00DDC1A49401818D0984219D0C5
:10260000B0F5006F19D0B0F5406F26D140F6140434
:102610001BE0994217D0B1F5184F05D0B1F51C4F0A
:102620001BD140F6051410E040F604140DE040F60E
:1026300011040AE040F6120407E040F6130404E037
:1026400040F61E0401E040F61F042046FEF7BEFEE1
:102650002046BDE81040FEF7A9BE10BD007800403E
:1026600000BCFFBFC16841F40051C160704700EB7E
:102670009110006801F01F0201219140084000D034
:1026800001207047C26822F004020A43C26070470A
:10269000C26822F008020A43C260704791C881C82C
:1026A00051C841C892C882C852C842C895C885C896
:1026B00055C845C87A0000207E0000208200002016
:1026C000860000208A0000207A0000207E00002082
:1026D00082000020860000208A0000200000000008
:1026E00041667465722045726173696E67200A20C5
:1026F0004C6F676963616C20426C6F636B3A202595
:102700006420506879736963616C20426C6F636BFD
:102710003A20256420426C6F636B204572617365BB
:1027200020434E543A202564200A0000457261730C
:10273000696E672E2E204C6F676963616C20426C56
:102740006F636B3A20256420506879736963616C0C
:1027500020426C6F636B3A20256420426C6F636B80
:1027600020457261736520434E543A202564200A47
:102770000000000050726F6772616D6D653A204C09
:102780006F676963616C20426C6F636B3A202564EC
:1027900020506879736963616C20426C6F636B3A97
:1027A00020256420426C6F636B2045726173652045
:1027B000434E543A202564200A000000496E697493
:1027C00069616C696174696F6E20537563636573C9
:1027D00073210A2042616420426C6F636B20496E52
:1027E000666F3A0A2042616420626C6F636B206EF0
:1027F000756D6265723A202564204C617374566170
:102800006C6964426C6F636B3A202564200A000097
:102810002A2A2A2A2A2A2A2A2A42616420426C6FFA
:10282000636B2A2A2A2A2A2A2A2A2A2A0A42616425
:1028300020626C6F636B2064657465637465643AD1
:10284000202578204F726967696E616C2050423A8A
:1028500020255820557064617465642050423A20E8
:1028600025580A002A2A2A2A2A2A2A2A2A2A2A2AE9
:102870002A2A2A57656172204C6576656C696E67F5
:102880002A2A2A2A2A2A2A2A2A2A2A2A2A200A708C
:102890006879626C6F636B202564206572735F6377
:1028A0006E742025642061766572616765202564F9
:1028B0002072706C5F626C6B20256400DC2800085D
:1028C00000000020A0000000EC0300087C290008A4
:1028D000A000002010370000FC03000800000000EA
:1028E00000000000001C4E0E0411000201000D0E3D
:1028F000062828000002000000040000040C040C5C
:10290000050C000C020C010C0010024000100240EB
:102910000014024004000000080000000004000051
:1029200000000240000802400004024001000000D4
:102930000020000000400000010000000020000016
:102940000040000000000000000000000000000047
:10295000000000000000FFFFFFFFFFFFFFFFFFFF81
:10296000FFFFFFFFFFFFFFFFFFFF00000000000071
:0C297000FFFFFFFFFFFF00000000000061
:04000005080001AD41
:00000001FF
